:020000040800F2
:1000000000C00020AD510008E1510008E151000896
:10001000E1510008E1510008E15100080000000032
:10002000000000000000000000000000511D00085A
:10003000E151000800000000E71D0008F71D00085E
:10004000E1510008E1510008E1510008E1510008C8
:10005000E1510008E1510008E1510008E1510008B8
:10006000E1510008E1510008E1510008E1510008A8
:10007000E1510008E1510008E1510008E151000898
:10008000E1510008E1510008E151000871770008D2
:100090005D770008E151000885770008E15100080C
:1000A000E1510008E1510008E1510008E151000868
:1000B000E15100080000000000000000E1510008CC
:1000C000E1510008E1510008E1510008E151000848
:1000D000E1510008E1510008E1510008E151000838
:1000E000E1510008E151000800000000000000009C
:1000F0000000000000000000000000000000000000
:1001000000000000E151000800000000E15100087B
:100110000000000000000000E1510008E15100086B
:10012000E1510008E1510008E1510008E1510008E7
:10013000E151000800000000000000000000000085
:10014000E1510008E1510008E1510008E1510008C7
:10015000E1510008E1510008E1510008E1510008B7
:10016000E1510008E1510008E151000800000000E1
:10017000E1510008E1510008E1510008E151000897
:10018000E1510008E1510008E1510008044B054825
:100190001B1A062B02D9044B03B11847704700BF46
:1001A000930900209009002000000000054906483E
:1001B000091A891001EBD171491002D0034B03B128
:1001C00018477047900900209009002000000000A7
:1001D00010B5064C237843B9FFF7D8FF044B13B191
:1001E0000448AFF300800123237010BD9009002064
:1001F00000000000501C010808B5084B1BB108495D
:100200000848AFF300800848036813B9BDE8084008
:10021000CCE7064B002BF9D09847F7E70000000029
:1002200094090020501C01088C09002000000000E7
:10023000134B002B08BF114B9D46A3F5803A0021BC
:100240008B460F461148124A121A09F0FFFB0D4B5C
:10025000002B00D098470C4B002B00D09847002073
:10026000002104000D000B4801F0DEFA08F058FFF1
:100270002000290001F0E6FB01F0CCFA00000800A4
:1002800000C0002000000000051B000890090020AD
:100290009C260020C98A000882B001900091009B32
:1002A000002B05D0019B9B68019A12681A6004E03C
:1002B000019BDB68019A12681A6000BF02B07047A8
:1002C00082B00190019B5B681A68019B1B68134018
:1002D000002B01D0012300E00023184602B0704734
:1002E00000B583B001900B46ADF80230019B1A4671
:1002F0000023136053609360D36013615361936173
:10030000019BBDF902201146184600F00DFA019B31
:10031000184603B05DF804FB00B583B0019000916E
:10032000019B00991846FFF7B7FF00BF03B05DF8C7
:1003300004FB00B583B00190019B1846FFF7C0FF96
:100340000346184603B05DF804FB00B583B0019086
:10035000009100990198FFF7DFFF019B184603B059
:100360005DF804FB00B583B001900198FFF7E1FF51
:100370000346184603B05DF804FB000008B52148A9
:10038000FFF7F0FF0346002B0CBF01230023DBB275
:1003900019461C48FFF7D9FF1A48FFF7E3FF034649
:1003A000002B0CBF01230023DBB2002B0CD016481E
:1003B000FFF7D8FF0346002B0CBF01230023DBB25D
:1003C00019461148FFF7C1FF0F48FFF7CBFF03465F
:1003D000002B0CBF01230023DBB2002B0CD00B48F9
:1003E000FFF7C0FF0346002B0CBF01230023DBB245
:1003F00019460648FFF7A9FF4FF07C5001F034FA88
:10040000BDE700BFAC090020C8090020E4090020B6
:1004100000B583B001900091019B012B10D1009B8E
:100420004FF6FF7293420BD105210748FFF758FFA3
:1004300027210648FFF754FF10210548FFF750FF1A
:1004400000BF03B05DF804FBAC090020C809002020
:10045000E409002008B54FF6FF710120FFF7D8FF2F
:1004600008BD82B001900091009B184602B0704711
:1004700000B583B00190019BDB68002B04D0019B89
:10048000DB689B6801989847019B184603B05DF8AC
:1004900004FB00B583B001900091009B002B05D1B7
:1004A00010220021019809F0D1FA04E06B461946A8
:1004B000019800F005F8019B184603B05DF804FBB5
:1004C00000B583B00190009110220021019809F03D
:1004D000BDFA019B19460420FFF7C3FF0346002B1A
:1004E00002D0009A12681A60019B034ADA6000BFCA
:1004F00003B05DF804FB00BF2C0F010800B583B00A
:1005000001900091019B1B680098984703B05DF82B
:1005100004FB00B583B001900091019B19460420B3
:10052000FFF79FFF0346002B02D0009A12681A6063
:1005300000BF03B05DF804FB82B0019000BF02B0C1
:10054000704700B583B00190019B14330021184619
:10055000FFF79FFF019B184603B05DF804FB00B551
:1005600083B00190019B14331846FFF781FF019B74
:10057000184603B05DF804FB30B583B00190019BD1
:1005800001241D46002C05DB284600F01EF82C3502
:10059000013CF7E7019B00229A65019B0022DA6586
:1005A000019B002283F86020019B184603B030BDF8
:1005B00000B583B00190019B04331846FFF7CFFFCD
:1005C000019B184603B05DF804FB00B583B00190B1
:1005D000019B00221A60019B043328220021184647
:1005E00009F034FA019B04331846FFF7AAFF019B78
:1005F000184603B05DF804FB00B583B0019000918C
:10060000019B012B0CD1009B4FF6FF72934207D147
:100610000548FFF7B1FF054A0549034801F0F2F824
:1006200000BF03B05DF804FB000A002000000020BA
:100630003506000810B582B00190019B002B0AD04E
:10064000019B03F15804019BA34204D02C3C20469B
:10065000FFF7AEFFF7E7019B184602B010BD08B5E3
:100660004FF6FF710120FFF7C7FF08BD00B583B04B
:1006700001900091019B012B0BD1009B4FF6FF7263
:10068000934206D1054809F0BBFD03461A46044BC8
:100690001A6000BF03B05DF804FB00BF380F01080B
:1006A000640A002008B54FF6FF710120FFF7DEFF56
:1006B00008BD82B001900091009B002B05D0019BEA
:1006C0009B68019A12681A6004E0019BDB68019A3A
:1006D00012681A6000BF02B0704700B585B0039081
:1006E00001930B46ADF80A3013468DF80930BDF979
:1006F0000A301946039807F029F9BDF90A30B3F119
:10070000FF3F0DD001990398FFF7D3FF0121039814
:1007100007F075F99DF809301946039807F05CF960
:1007200000BF05B05DF804FB00B583B001900B4637
:10073000ADF80230BDF9023000221946019800F0F0
:1007400004F800BF03B05DF804FB00B585B003906A
:100750000B460192ADF80A30BDF90A10019B002248
:100760000398FFF7BAFF00BF05B05DF804FB000077
:1007700000B583B003460091ADF80630BDF90630F0
:10078000B3F1FF3F23D018E0009BB3F90030BDF96F
:1007900006209A420ED1009B9A68BDF90630114698
:1007A000184607F0B9FBBDF906300021184607F0DE
:1007B00041FC0DE0009B0C330093009BB3F900302B
:1007C000B3F1FF3FE0D1044800F0E0FD00E000BFDE
:1007D00003B05DF804FB00BF640F010800B583B0EF
:1007E00001900091019A009B9A4201D1019B10E077
:1007F000019BB3F1FF3F01D1009B0AE0009BB3F1E5
:10080000FF3F01D1019B04E0044800F0BFFD4FF021
:10081000FF33184603B05DF804FB00BF780F0108F2
:1008200082B003460091ADF806300CE0009BB3F9AE
:100830000030BDF906209A4202D1009B5B680AE0B5
:10084000009B0C330093009BB3F90030B3F1FF3FE2
:10085000ECD14FF0FF33184602B0704700B585B0B9
:1008600003460091ADF806304FF0FF330393BDF916
:100870000630B3F1FF3F02D14FF0FF330EE0BDF978
:10088000063000991846FFF7CBFF0390039BB3F1A6
:10089000FF3F02D1034800F079FD039B184605B0E5
:1008A0005DF804FB8C0F010808B500F0A9FC094BAA
:1008B0001B884FF6FF72934204D100F0EDFC06480E
:1008C00000F064FD0121034800F02AFD00F0E4FC83
:1008D00000BF08BD680A0020CC0F010808B500F071
:1008E0008FFC084B1B88002B04D100F0D5FC064878
:1008F00000F04CFD0121034800F02DFD00F0CCFC80
:1009000000BF08BD680A0020FC0F010808B500F010
:1009100077FC07F02BFE00F0BFFC00BF08BD000015
:100920002DE9F0478AB00390039B5B6893F8383059
:10093000002B40F0C080039B1B681B689847039BFB
:100940001B689B6998470790079B1B680993079B47
:100950001B68002B06D1292259495A4800F086FB12
:10096000594B0993079B5B680893079B5B68202B97
:1009700003D8079B5B68032B06D82F2250495148A8
:1009800000F074FB20230893089B043B072202FA23
:1009900003F30693069B19464FF000020B461446DC
:1009A00060010190019840EAD36001905B010093DF
:1009B000DDE900345B1A64EB02044FEA442A4AEA98
:1009C000D35A4FEA43294B4654465B1844EB020482
:1009D000A60146EA93669D01ED1A66EB04064919E5
:1009E00042EB0602099B4FF000045B1844EB020443
:1009F00013F1FF3044F1FF31099B4FF000041A4618
:100A0000234610F0FFF803460C46CDE90434039B5F
:100A10005B6800221A60039B5B6800225A60039B9C
:100A20005C68039B1B685B68984703462362039BD3
:100A30005A684FF000034FF00004C2E90A34039BE8
:100A40005B68099A9A60039B5D684FF001034FF061
:100A50000004089AA2F12000C2F1200104FA02F871
:100A600003FA00F048EA000823FA01F148EA010815
:100A700003FA02F73B46013BEB60039B5B68069A77
:100A80001A61039B5A68DDE90434C2E90634039B0A
:100A90005A684FF000034FF00004C2E90C34039B86
:100AA0005B68012283F83820039800F00FF8039860
:100AB00000F0D6F900E000BF0AB0BDE8F08700BF43
:100AC000241001084410010840420F002DE9F047AE
:100AD00096B00B900B9B5B6813930B9B1B685B683A
:100AE000984712900B9B5B681A6A129B9A4200F01F
:100AF0000F81139B1A6A129B9A1A139BDB6813408F
:100B00004FF00004CDE91034139A129B1362139B2B
:100B10009A68814B9A4204D1DDE91034CDE914344E
:100B2000EAE0139B9B68B3F5004F70D1DDE910122A
:100B30000B46144660010190019840EAD360019091
:100B40005B010093DDE900345B1A64EB0204600290
:100B50000390039840EAD35003905B020293DDE9CF
:100B600002345B1844EB02044FEA841848EA9368A5
:100B70009F01FF1A68EB04087B1848EB0204CDE9DB
:100B80000E34DDE90E34DA0B0492049A42EA444250
:100B90000492E30B0593DDE90434CDE91434139B8F
:100BA000D3E90A12DDE914344FEAC43A4AEA534A57
:100BB0004FEAC339DDE90E34B3EB090364EB0A04F1
:100BC0005B1844EB0204139AC2E90A34139BD3E97D
:100BD0000A12139B9B684FF00004A24208BF99427F
:100BE000C0F08A80DDE91434013344F10004CDE91A
:100BF0001434139BD3E90A12139B9B684FF0000433
:100C0000CB1A62EB0404139AC2E90A3474E0DDE9FA
:100C100010120B46144660010790079840EAD36013
:100C200007905B010693DDE906345B1A64EB02046E
:100C300060020990099840EAD35009905B0208933A
:100C4000DDE908345B1844EB0204A60146EA93662A
:100C50009D01ED1A66EB04066B1846EB0204CDE924
:100C60000C34139B9B684FF000041A462346DDE9C1
:100C70000C010FF0C7FF03460C46CDE91434139B5B
:100C8000D3E90A12139B9B684FF00004149804FBED
:100C900000F5159803FB00F02844149DA5FB0334D0
:100CA00020440446DDE90C56EB1A66EB04045B189D
:100CB00044EB0204139AC2E90A34139BD3E90A12E3
:100CC000139B9B684FF00004A24208BF994213D3C4
:100CD000DDE91434013344F10004CDE91434139BED
:100CE000D3E90A12139B9B684FF00004CB1A62EB06
:100CF0000404139AC2E90A34139BD3E90C12DDE908
:100D000014345B1844EB0204139AC2E90C3400E07B
:100D100000BF16B0BDE8F08740420F0030B589B083
:100D20000390CDE90023039B5B680693069BD3E900
:100D30000C23DDE90001821A61EB0303CDE90423F2
:100D4000039B5B681B690793039B5B68D3E9060100
:100D5000DDE90423994208BF904253D3069B9B6868
:100D60002D4A93420CD1049B0793039B5B681A693D
:100D7000079B9A4246D2039B5B681B69079341E03D
:100D8000069B9B68B3F5004F1AD1DDE90423DD0310
:100D900045EA5245D403204A4FF000032046294635
:100DA0000FF030FF03460C460793039B5B681A69FC
:100DB000079B9A4226D2039B5B681B69079321E03D
:100DC000069B9B684FF00004049A04FB02F1059A0D
:100DD00003FB02F20A440499A1FB030153181946CC
:100DE0000D4A4FF000030FF00DFF03460C4607932A
:100DF000039B5B681A69079B9A4203D2039B5B685B
:100E00001B690793069B1A6A079B1A44069BDB68BB
:100E10001340184609B030BD40420F0084B0039023
:100E200002910192019A039B9A420BD9029A019B6B
:100E30009A4203D2029A039B9A4201D201230CE008
:100E400000230AE0029A039B9A4205D2029A019B70
:100E50009A4201D3012300E00023184604B07047F2
:100E600010B58CB00190019B5B680B930198FFF764
:100E70002DFE019B5B685B68002B38D0019B5B6893
:100E8000D3E90C34CDE90834019B5B685B68D3E996
:100E90000034CDE90634DDE90634DDE90812A2426A
:100EA00008BF994204D3019B1B685B6998472CE0FB
:100EB000DDE906230198FFF731FF0590019B1B68D0
:100EC0001B6905989847019B1B685B6898470490CD
:100ED0000B9B1B6A059A04991846FFF79FFF034670
:100EE000002B12D0019B1B685B6998470DE00B9BA0
:100EF0001A6A0B9B1B691A440B9BDB681340039314
:100F0000019B1B681B69039898470CB010BD10B576
:100F100084B00190019B1B68DB689847019B5B686C
:100F20005B68002B27D00198FFF7D0FD019B5B6821
:100F30005B68D3E90034019A5268D2E90C12A242EC
:100F400008BF994219D3019B5B685B680393019BBF
:100F50005B68019A52685268D2685A60019B5B686C
:100F60001B68002BDAD0019B5B681B68039A9268B0
:100F700010469847D2E700BF00E000BF0198FFF796
:100F80006FFF00BF04B010BD10B582B00190019892
:100F900000F005F803460C46184602B010BD10B527
:100FA00082B001900198FFF7BBFC0198FFF78EFD1E
:100FB000019B5B68D3E90C341846214602B010BD92
:100FC000014B1846704700BF6410010808B5054B77
:100FD0001B68002B03D0034B1B680348984700BFD6
:100FE00008BD00BF040000206410010800B585B0F2
:100FF00001900091002303930099019808F02AF9C9
:101000000390039B184605B05DF804FB00B587B05C
:1010100003900291019200230593019A029903988B
:1010200008F062FD0590059B184607B05DF804FBCB
:1010300000B583B0019000910099019807F0AEFDD2
:1010400000BF03B05DF804FB00B587B003900291C8
:10105000019200230593019A0299039807F0E4FA9C
:101060000590059B184607B05DF804FB00B585B0F8
:1010700003900291019200F0C3F8019B029A039938
:10108000044800F05BF800F01BF800BF05B05DF805
:1010900004FB00BF6C10010882B001900091009B1E
:1010A000002B05D0019B9B68019A12681A6004E02E
:1010B000019BDB68019A12681A6000BF02B070479A
:1010C00000B58BB000F09CF801AB05211846FFF786
:1010D0002BFB0023099312E001AB01211846FFF717
:1010E000DBFF962000F0D6FB01AB00211846FFF78E
:1010F000D3FF962000F0CEFB099B01330993099B97
:10110000032BE9DD0023089314E001AB012118460D
:10111000FFF7C2FF4FF4C87000F0BCFB01AB002129
:101120001846FFF7B9FF4FF4C87000F0B3FB089BF7
:1011300001330893089B032BE7DDCAE70FB400B522
:1011400083B005AB01930199049800F007F800BF44
:1011500003B05DF804EB04B07047000000B5A5B023
:101160000190009100F04CF802A8009B019A8021A8
:101170000CF07AFC2290229B002B1ADD104B1B688E
:10118000002B04D10A2209210E4806F0DBFF0023C0
:1011900023930AE002AA239B13441B7819460948AB
:1011A00006F0A4F9239B01332393239A229B9A42AE
:1011B000F0DB00F071F800BF25B05DF804FB00BF64
:1011C000301200201026002082B0EFF3108301932C
:1011D000019B03F00103002B0CBF01230023DBB2B2
:1011E000184602B0704782B0EFF305830193019B6C
:1011F000002B14BF01230023DBB2184602B0704756
:1012000000B583B0FFF7E0FF0346002B14BF0123B6
:101210000023DBB283F00103DBB28DF807309DF8C9
:10122000073003F001038DF8073072B6154B1B68C9
:10123000002B03D1144A9DF807301370114B1B6823
:10124000B3F1FF3F04D1432210491148FFF70EFFCD
:101250000C4B1B68002B0BD09DF8073083F001036B
:10126000DBB2002B04D0472208490A48FFF7FEFEF4
:10127000044B1B680133034A136000BF03B05DF8E1
:1012800004FB00BFB00A0020B40A0020A01001082F
:10129000C4100108EC10010800B583B01C4B1B689A
:1012A000002B30D0FFF790FF0346002B14BF012323
:1012B0000023DBB283F00103DBB28DF807309DF829
:1012C000073003F001038DF807309DF8073083F0F5
:1012D0000103DBB2002B04D058220E490E48FFF761
:1012E000C5FE0B4B1B68013B094A1360084B1B688A
:1012F000002B08D1094B1B78DBB283F00103DBB272
:10130000002B00D062B600BF03B05DF804FB00BF45
:10131000B00A0020A0100108EC100108B40A002057
:1013200000B585B001900B46ADF80230FFF768FFBD
:10133000019B1A88BDF802301344ADF80E30019BB2
:10134000BDF80E201A80FFF7A7FFBDF80E30184633
:1013500005B05DF804FB00B585B001900B46ADF813
:101360000230FFF74DFF019B1A88BDF80230D31AF7
:10137000ADF80E30019BBDF80E201A80FFF78CFFF0
:10138000BDF80E30184605B05DF804FB0FB400B58B
:1013900083B00B4B1B78002B0BD1094B01221A7029
:1013A00005AB019301990498FFF7D8FE012000F0E6
:1013B00031FA00BF03B05DF804EB04B0704700BF22
:1013C000B50A002008B5084B1B68002B0AD10A2279
:1013D0000921064806F0B6FE4FF41651034806F000
:1013E000DBFF00E000BF08BD301200201026002007
:1013F00000B585B00190019B022B01DC00232AE09F
:10140000019B033B164A52F823300393019B033B95
:10141000134A002142F82310039B002B07D107F049
:1014200033F90246092313604FF0FF3313E0039BA7
:101430001B6814331B68039898470290029B002B8B
:1014400008DA07F021F90246029B5B4213604FF075
:10145000FF3300E00023184605B05DF804FB00BF31
:10146000C00A002000B589B0039002910192009358
:10147000FFF7B9FE0346002B07D1FFF7A5FE034691
:1014800083F00103DBB2002B01D0012300E0002335
:10149000002B02D02448FFF779FF039B022B1ADCB4
:1014A000224B1B68002B01D1FFF78CFF0023069312
:1014B000069A019B9A420BD2029A069B13441B7810
:1014C00019461B4806F012F8069B01330693EFE716
:1014D000019B079322E0039B033B164A52F82330FB
:1014E0000593059B002B07D107F0CEF80246092390
:1014F00013604FF0FF3312E0059B1B680C331B6831
:10150000019A0299059898470790079B002B05DAE6
:1015100007F0BAF80246079B5B421360079B184628
:1015200009B05DF804FB00BF001101083012002073
:1015300010260020C00A002000B587B00390029159
:1015400001920093FFF74FFE0346002B07D1FFF7F0
:101550003BFE034683F00103DBB2002B01D00123E5
:1015600000E00023002B02D01E48FFF70FFF039B73
:10157000022B0FDC1C4B1B68002B01D1FFF722FF55
:101580001A4805F087FF0346DAB2029B1A7001235E
:10159000059322E0039B033B154A52F82330049342
:1015A000049B002B07D107F06FF802460923136054
:1015B0004FF0FF3312E0049B1B6808331B68019A4D
:1015C0000299049898470590059B002B05DA07F0CF
:1015D0005BF80246059B5B421360059B184607B00B
:1015E0005DF804FB3C110108301200201026002099
:1015F000C00A002000B585B00190019B022B01DCE0
:10160000012322E0019B033B124A52F8233003934B
:10161000039B002B06D107F037F80246092313601D
:10162000002312E0039B1B681C331B680398984738
:101630000290029B002B07DA07F026F80246029B75
:101640005B421360002300E0029B184605B05DF882
:1016500004FB00BFC00A002000B587B003900291D0
:101660000192039B022B07DC07F00EF802461D23B4
:1016700013604FF0FF3326E0039B033B144A52F8FC
:1016800023300593059B002B07D106F0FDFF024692
:10169000092313604FF0FF3315E0059B1B681033DF
:1016A0001B68019A0299059898470490049B002BA7
:1016B00008DA06F0E9FF0246049B5B4213604FF034
:1016C000FF3300E0049B184607B05DF804FB00BF41
:1016D000C00A002000B585B001900091019B022B4B
:1016E00005DC009B4FF400525A6000232AE0019B66
:1016F000033B164A52F823300393039B002B07D178
:1017000006F0C2FF0246092313604FF0FF3319E0D1
:10171000039B1B681C331B68039898470346002BE8
:1017200002D04FF4005201E04FF40042009B5A6097
:10173000039B1B6828331B68039898470246009B4D
:101740001A610023184605B05DF804FBC00A0020AA
:1017500010B485B001901B4B1B680393194B1A689A
:10176000019B13440293EFF308831C4623461A4659
:10177000029B9A4294BF01230023DBB2002B05D0C9
:10178000114B0C221A604FF0FF3315E00F4B1B6812
:10179000002B0DD00E4B1A680C4B1B681A44029B91
:1017A0009A4205D8084B0C221A604FF0FF3303E031
:1017B000044A029B1360039B184605B05DF8044B76
:1017C000704700BF0800002098260020BC0A0020B7
:1017D000B80A002000B583B00190094B1B689B68D4
:1017E000184607F055F8064B1B68DB68184607F0EB
:1017F0004FF8019B002B01D0FFF762FCFEE700BF12
:10180000B800002084B00390029101920123184691
:1018100004B0704700B583B001900198FFF7DAFF7C
:1018200000BF03B05DF804FB82B0019001231846AD
:1018300002B0704700B583B00190019800F070F9D4
:1018400000BF03B05DF804FB00B583B001900198C0
:1018500000F076F900BF03B05DF804FB014B1846B9
:10186000704700BF8C12010800B583B00190DDED18
:10187000017A9FED077A67EE877AFDEEE77A17EE39
:10188000900A00F017F800BF03B05DF804FB00BF3A
:101890000024744900B583B00190019B4FF47A7223
:1018A00002FB03F3184600F005F800BF03B05DF833
:1018B00004FB000000B587B00190FFF781FB0590A5
:1018C0000598FFF761FB0490019B174A82FB031206
:1018D0009211DB17D31A0393039B002B06DDFFF74E
:1018E00073FC0346002B01D0012300E00023002BF2
:1018F00007D0FEF7D9FF039B184603F09BFBFEF7CA
:10190000EDFF0598FFF740FB0246049BD21A019BAE
:101910009A4234BF01230023DBB2002B00D0F0E752
:1019200000BF07B05DF804FBD34D621082B0134BCB
:101930000193124BC3F1005303F540430093009B06
:10194000B3F5806F28BF4FF480630D4A13600C4BD2
:101950001B68009AD31A019A13440A4A1360084B71
:101960001B68009AD31A0093074A009B1360074A2A
:10197000019B136000BF02B0704700BF9C2600208F
:10198000C40B0020C00B0020BC0A0020B80A0020B5
:1019900084B0104B9B6802934FF080530193002357
:1019A00003930CE0039B9B00019A1344039A92005B
:1019B00002990A4412681A60039B01330393039B44
:1019C000622BEFDD034B4FF080529A6000BF04B0F2
:1019D000704700BF00ED00E000BF704700B583B066
:1019E000124B134A1A61114B4FF480525A610F4B3C
:1019F0004822DA600D4B0F4A9A600C4B18229A610C
:101A00000A4B0D4A1A60094A00210C4803F01EF9DE
:101A10000190019B002B02D10948FFF7B7FC00F0B1
:101A2000F7FD00BF03B05DF804FB00BF34230020C6
:101A3000B81200206812002094120108551A0008FC
:101A4000A012010808B5FFF7C7FFFEF797FC034691
:101A5000184608BD08B51F4B1F4A1A601D4B0B22C4
:101A60005A601C4B1C22DA601A4B1C4A9A601948B7
:101A700002F02EF802461A4B1A601A4B1A4A1A60E4
:101A8000184B0B225A60174B1C22DA60154B174A71
:101A90009A60144802F01CF80246154B1A60154B68
:101AA000154A1A60134B0B225A60124B1C22DA6043
:101AB000104B124A9A600F4802F00AF80246104B87
:101AC0001A6007F02DFB00210020FFF7BBFF00BFCD
:101AD00008BD00BF24230020BC120108EC22002016
:101AE000E8220020D8220020CC1201080823002080
:101AF000B012002058230020DC120108BC22002074
:101B0000B822002008B5FFF711FFFFF741FF06F0EC
:101B1000ABF800F013FDFFF761FF00BF08BD000048
:101B200000B583B00190054B1B684FF0FF3118469C
:101B300002F00CF800BF03B05DF804FBB012002007
:101B400000B583B00190044B1B68184602F032F8D0
:101B500000BF03B05DF804FBB012002000B583B0F5
:101B6000019000F0EDF8FCE700B585B00190009120
:101B700003F0F4F80390019B013B042B30D801A241
:101B800052F823F0991B0008AD1B0008BB1B00088E
:101B9000C91B0008D51B0008009803F0B5F80346E0
:101BA000009A01991248FFF7F1FB1FE0009B039A8E
:101BB00001991048FFF7EAFB18E0009B039A01998E
:101BC0000D48FFF7E3FB11E0039A01990B48FFF77B
:101BD000DDFB0BE0039A01990948FFF7D7FB05E00D
:101BE000039A01990748FFF7D1FB00BFFEE700BF4A
:101BF000E81201083C13010894130108FC130108C2
:101C000058140108B814010882B00190019B0633F2
:101C1000052B1BD801A252F823F000BF491C000875
:101C2000451C0008411C00083D1C0008391C000828
:101C3000351C0008074B0AE0074B08E0074B06E09D
:101C4000074B04E0074B02E0074B00E0074B184648
:101C500002B07047F41401080C1501084015010882
:101C60005815010868150108801501089C15010820
:101C700000B583B001900198FFF7C6FF03461A46EE
:101C800001990348FFF782FB00BF03B05DF804FB36
:101C9000A415010800B583B0019000910098FFF7EA
:101CA000B3FF0346009A01990348FFF76FFB00BF9B
:101CB00003B05DF804FB00BFBC15010800B583B09C
:101CC000019000910098FFF79FFF0346009A019949
:101CD0000348FFF75BFB00BF03B05DF804FB00BFE8
:101CE0000816010800B583B001900091009A01998F
:101CF0000348FFF74BFB00BF03B05DF804FB00BFD8
:101D00005416010800B583B003F028F8019001983B
:101D100003F07EF900BF03B05DF804FB08B5FEF7E1
:101D2000F5FD00BF08BD08B5FFF76AFAFEF7BCFD78
:101D3000FFF7F4FFFEF7D2FDFFF7AEFA00BF08BDD4
:101D400008B5024B1B689847FBE700BF0C0000205A
:101D5000EFF30980816911F8021CB9BB01B590E865
:101D60000F10E047BDE800508CE80300264B93E8D5
:101D70000600914208BF704741B91EF0100F10D104
:101D80002249086820F0010008600AE02CE9F00F01
:101D90001EF0100F08BF2CED108AC1F838C081F872
:101DA00022E002F095FB184B93E806001A6092F8C7
:101DB0002210906B61F0FF0E1EF0100F08BFB0EC08
:101DC000108AB0E8F00F80F30988704710B5104A08
:101DD0001368994206D852F821400FC8A047EFF384
:101DE0000984206010BD10B502F02EF8BDE8104047
:101DF000EFF3098CBAE710B501F0C4FFBDE810405D
:101E0000EFF3098CB2E700002400002034EF00E07B
:101E10007C17010800B583B00190019B002B01D114
:101E2000002304E00199132002F0DAFB0023184696
:101E300003B05DF804FB000000B587B00190019885
:101E400000F09BF8EFF305830593059B002B0BD166
:101E5000EFF310830493049B002B05D1EFF3118360
:101E60000393039B002B07D06FF005010020FFF7C1
:101E700011FF6FF0050307E0019B02930298044BEA
:101E80009C4600DF034600BF184607B05DF804FB20
:101E9000151E000884B003900291019200BF04B0A7
:101EA000704784B0039002910192009300BF04B088
:101EB000704784B003900291019200BF04B0704754
:101EC00084B0039002910192009300BF04B0704768
:101ED00082B00190009100BF02B0704784B00390BF
:101EE0000291019200BF04B0704700BF704700BF6D
:101EF000704782B0019000BF02B0704700BF7047CA
:101F000000BF704784B003900291019200BF04B0FB
:101F1000704782B0019000BF02B0704782B001905C
:101F2000009100BF02B0704782B0019000BF02B0C4
:101F3000704782B0019000BF02B0704782B001903C
:101F4000009100BF02B0704782B00190009100BFC5
:101F500002B0704782B0019000BF02B0704782B0FB
:101F6000019000BF02B0704700BF704784B003907B
:101F70000291019200BF04B0704782B0019000BF8F
:101F800002B0704700BF704782B00190009100BF5F
:101F900002B0704782B0019000BF02B0704782B0BB
:101FA000019000BF02B0704782B0019000BF02B044
:101FB000704782B00190009100BF02B0704782B0BC
:101FC0000190009100BF02B0704782B0019000BF45
:101FD00002B0704782B00190009100BF02B070471C
:101FE00082B0019000BF02B0704782B0019000BF84
:101FF00002B0704782B00190009100BF02B07047FC
:1020000082B0019000BF02B0704782B0019000BF63
:1020100002B0704784B003900291019200BF04B0F7
:10202000704782B0019000BF02B0704784B0039047
:102030000291009313468DF8073000BF04B070473B
:1020400084B003900291019200BF04B0704782B047
:10205000019000BF02B0704782B00190009100BFB4
:1020600002B0704782B00190009100BF02B070478B
:1020700082B00190009100BF02B0704784B003901D
:1020800002910192009300BF04B0704784B00390A6
:102090000291019200BF04B0704782B0019000BF6E
:1020A00002B0704782B00190009100BF02B070474B
:1020B00082B00190009100BF02B07047034BDB6813
:1020C0001B0A03F007031846704700BF00ED00E04D
:1020D00000B583B0124BFF2283F82220104B93F8F7
:1020E0002230DBB263F0FF03DB43B3FA83F3C3F1C7
:1020F00020030193FFF7E2FF0090009A019B9A42B0
:1021000002D3009B01330193054AFE21019B01FA92
:1021100003F3DBB2D37700BF03B05DF804FB00BF6D
:1021200000ED00E008B5444B1B7A012B03D1FFF70B
:10213000DEFE00235BE1404B1B7A002B06D04FF004
:10214000FF30FFF795FD4FF0FF3350E19C22002157
:102150003A4807F07BFC3A4B5B6D472B06D86FF093
:102160000A00FFF785FD4FF0FF3340E1344BDB6899
:10217000002B03D0324B1B8A002B06D14FF0FF30CF
:10218000FFF776FD4FF0FF3331E12D4BDB682A4A34
:10219000D3652B4B1A8A284BA3F85420284B9B68F5
:1021A000254A1364264BDA6A254B1B6B19461046E9
:1021B00000F07AFA0346002B04D0214BDB6A1E4A5A
:1021C000C2F880301E4B5A691D4B9B691946104658
:1021D00000F06AFA0346002B04D0194B5B69164ADB
:1021E000536704E0144BD3F88030134A5367144B01
:1021F000DA69134B1B6A1946104600F055FA03467C
:10220000002B04D00E4BDB690B4A936704E00A4BAA
:10221000D3F88030084A9367094B5A6A084B9B6A87
:102220001946104600F040FA0346002B0AD0044B32
:102230005B6A014AD3670AE0100000201800002002
:10224000DC1601086B4BD3F880306A4AD3676A4BBF
:102250005B6B002B14D0684B586B674B5B6B19683A
:10226000654B5B6B9A68644B5B6BDB6800F07AFBD9
:102270000346002B04D0604B5B6B5E4AC2F884308F
:102280005D4B9B6B002B14D05B4B986B5A4B9B6B3D
:102290001968594B9B6B9A68574B9B6BDB6800F036
:1022A00061FB0346002B04D0534B9B6B514AC2F891
:1022B0008830514BDB6B002B14D04F4BD86B4E4BFF
:1022C000DB6B19684C4BDB6B9A684B4BDB6BDB6849
:1022D00000F048FB0346002B04D0474BDB6B454A1C
:1022E000C2F88C30444B1B6C002B14D0424B186C42
:1022F000414B1B6C1968404B1B6C9A683E4B1B6C26
:10230000DB6800F02FFB0346002B04D03A4B1B6C1C
:10231000384AC2F89030384B5B6C002B14D0364BE7
:10232000586C354B5B6C1968334B5B6C9A68324B5D
:102330005B6CDB6800F016FB0346002B04D02E4BD1
:102340005B6C2C4AC2F894302B4B9B6C002B14D046
:10235000294B986C284B9B6C1968274B9B6C9A688F
:10236000254B9B6CDB6800F0FDFA0346002B04D084
:10237000214B9B6C1F4AC2F898301F4BDB6C002B23
:1023800014D01D4BD86C1C4BDB6C19681A4BDB6CE2
:102390009A68194BDB6CDB6800F0E4FA0346002B0B
:1023A00004D0154BDB6C134AC2F89C30124B1B6DEA
:1023B000002B14D0104B186D0F4B1B6D19680E4B72
:1023C0001B6D9A680C4B1B6DDB6800F0CBFA034663
:1023D000002B04D0084B1B6D064AC2F8A030FFF753
:1023E00077FE044B01221A72FFF781FD0023184685
:1023F00008BD00BF10000020DC16010808B5044B22
:102400001B7A1846FFF775FD014B1B7A184608BD6D
:102410001000002000B585B0424B1B7A012B06D07E
:102420006FF00600FFF724FC4FF0FF3376E03D4BE2
:102430009B6A002B14D13C4B9A6D002300213B4832
:1024400002F056F90246374B9A62364B9B6A002BD4
:1024500006D14FF0FF30FFF70BFC4FF0FF335DE08C
:10246000314B5B6E002B18D02E4B9B6C002B14D184
:102470002D4BDA6D002300212D4802F039F9024678
:10248000284B9A64274B9B6C002B06D14FF0FF30F2
:10249000FFF7EEFB4FF0FF3340E0234B5B6825492D
:1024A000184602F05BFD0346002B02D04FF0FF33CD
:1024B00034E002F0A9FD02461A4B1A6102F082FDD7
:1024C0000346002B02D04FF0FF3327E01A4801F0FB
:1024D000DDFD0390039B002B06D14FF0FF30FFF78B
:1024E000C7FB4FF0FF3319E0039801F0DDFF0E4BFF
:1024F0001B6803F00103002B05D002230293029B0B
:1025000083F3148804E003230193019B83F314886D
:10251000044B02221A72FFF7F3FC0023184605B0A1
:102520005DF804FB10000020DC1601085D1B0008AC
:10253000ED4E0008F71D00082C00002000B585B006
:10254000FFF7D3FCEFF305830393039B002B0BD121
:10255000EFF310830293029B002B05D1EFF311835D
:102560000193019B002B06D06FF00500FFF780FB65
:102570006FF0050314E00C4B9C46EFF3148313F04B
:10258000020F0AD113F0040FEFF308830CBF203BB6
:10259000683B23F0070383F3098800DF034600BF8D
:1025A000184605B05DF804FB2521000800B585B08C
:1025B000EFF305830393039B002B0BD1EFF3108301
:1025C0000293029B002B05D1EFF311830193019B32
:1025D000002B06D04FF0FF30FFF78BFC4FF0FF339E
:1025E00010E0EFF314830093009B03F00103002B32
:1025F00003D1FFF703FF034604E0044B9C4600DFD2
:10260000034600BF184605B05DF804FBFD23000833
:1026100000B585B0FFF772FCEFF305830393039BCE
:10262000002B0BD1EFF310830293029B002B05D1FB
:10263000EFF311830193019B002B06D06FF005008F
:10264000FFF716FB6FF0050326E0FFF7AFFF034629
:10265000022B0CD0124B1B68002B08D0104B1B68B0
:102660005B68002B03D00E4B1B685B6898470D4BD3
:102670009C46EFF3148313F0020F0AD113F0040FFA
:10268000EFF308830CBF203B683B23F0070383F381
:10269000098800DF034600BF184605B05DF804FB5B
:1026A000682300201524000800B585B00190009132
:1026B000019B002B0CD0019B03F00703002B07D1DB
:1026C000009B03F00703002B02D1009B172B06D8B9
:1026D000002200990198FFF7DDFB00231EE0019B1B
:1026E0000393039B009A1A60039B10225A60019B7C
:1026F00008330293019A009B1344083B1A46029B3D
:102700001A60029B1B6800221A60029B00225A601A
:10271000012200990198FFF7BDFB0123184605B07F
:102720005DF804FB00B589B0039002910192039B10
:10273000002B07D0029B002B04D0019B23F0030346
:10274000002B07D00023019A02990398FFF7A9FBF9
:1027500000235BE0029B08330293029B073323F0C4
:1027600007030293039B08330793079B1B681A46D2
:10277000079BD31A0593079B5B6823F00303059A15
:10278000D31A0593059A029B9A420ED2079B1B68A7
:102790000793079B1B68002BE7D10023019A02993E
:1027A0000398FFF77EFB002330E000BF039B5A68CD
:1027B000029B1A44039B5A60079B5B68002B08D15D
:1027C000029A019B1A43079B5A60079B08330693A2
:1027D00015E0079B5B6823F00302079B13440493F7
:1027E000079B1A68049B1A60029A019B1A43049B78
:1027F0005A60079B049A1A60049B08330693069B51
:10280000019A02990398FFF74CFB069B184609B002
:102810005DF804FB00B587B001900091019B002B8F
:1028200002D0009B002B06D1002200990198FFF7EF
:1028300040FB002335E0009B083B039300230493F7
:10284000019B083305930EE0059B0493059B1B68D1
:102850000593059B002B06D1002200990198FFF7F4
:1028600028FB00231DE0059A039B9A42ECD1019BB3
:102870005A68059B5B6823F00303D21A019B5A60D8
:10288000049B002B03D1059B00225A6003E0059BAB
:102890001A68049B1A60012200990198FFF709FB4E
:1028A0000123184607B05DF804FB10B483B0019013
:1028B0000091019B009A53E8001F8A4202D8BFF39F
:1028C0002F8F04E0481C43E8000404B1F3E70C46F2
:1028D0002346184603B05DF8044B704710B483B02C
:1028E0000190019B53E8002F12B9BFF32F8F04E032
:1028F000511E43E8001000B1F4E714462346184681
:1029000003B05DF8044B704710B483B00190019B95
:1029100053E8002F12B9BFF32F8F04E0116843E88A
:10292000001000B1F4E714462346184603B05DF8E2
:10293000044B704710B483B001900091019B009A42
:1029400019681160BFF35F8F53E8001F1068884259
:10295000F6D143E8002404B1F2E700BF03B05DF80C
:10296000044B704700B587B0039002910192009329
:10297000039B002B08D0029B002B05D0019B002B52
:1029800002D0009B002B01D1002330E0039B029A70
:102990001A60039B00225A60039B019A9A60039B72
:1029A000009ADA60039B009A5A61029B019A02FB2B
:1029B00003F3009A1A44039B1A61009B019A02993F
:1029C0000398FFF77DFA08E0009A019B13440593F2
:1029D000009B059A1A60059B0093029B013B0293A2
:1029E000029B002BF0D1009B00221A6001231846A5
:1029F00007B05DF804FB00B585B00190019B002B8A
:102A000005D100210020FFF763FA00231AE0019BA3
:102A10001A1D019B1B6819461046FFF746FF024628
:102A2000019B1B689A4206D2019B14331846FFF79C
:102A30006BFF039001E00023039303990198FFF7D4
:102A400047FA039B184605B05DF804FB00B585B056
:102A500001900091019B002B09D0019BDA68009B3B
:102A60009A4204D8019B1A69009B9A4208D86FF0D9
:102A7000030200990198FFF731FA6FF0030319E0A0
:102A8000019B04331846FFF729FF0346002B08D0AB
:102A9000019B143300991846FFF74CFF0023039362
:102AA00002E06FF002030393039A00990198FFF785
:102AB00015FA039B184605B05DF804FB10B483B00B
:102AC00001900B468DF80330019B9DF80320D3E85D
:102AD0004F1FC3E8402F00B1F9E7CCB22346184698
:102AE00003B05DF8044B704710B483B00190019BB4
:102AF00053E8002F511C43E8001000B1F8E71446DA
:102B00002346184603B05DF8044B704710B483B0F9
:102B10000190019B53E8002F12B9BFF32F8F04E0FF
:102B2000511E43E8001000B1F4E71446234618464E
:102B300003B05DF8044B7047014B5B691846704762
:102B40001000002000B585B001900091019B1B6B27
:102B5000002B2ED0019B1B6B03930023029304E0F8
:102B6000039B0293039B5B680393039B002B05D09D
:102B7000039BDA78009BDB789A42F1D3009B039A9F
:102B80005A60009B029A9A60039B002B03D0039B20
:102B9000009A9A6002E0019B009ADA62029B002B85
:102BA00003D0029B009A5A600FE0019B009A1A63BF
:102BB0000BE0009B00225A60009B00229A60019B60
:102BC000009ADA62019B009A1A63019B2833184627
:102BD000FFF78AFF00BF05B05DF804FB00B587B0C2
:102BE0000190019B28331846FFF790FF0490049B47
:102BF000002B01D1002319E0019BDB6A05930FE054
:102C0000059B023301211846FFF758FF03468DF854
:102C10000F309DF80F30002B06D0059B9B68059365
:102C2000059B002BECD100E000BF059B184607B0C8
:102C30005DF804FB82B001900091009B5B68002B63
:102C400005D0009B5B68009A92689A6003E0009B45
:102C50009A68019BDA62009B9B68002B05D0009B61
:102C60009B68009A52685A6003E0009B5A68019B77
:102C70001A6300BF02B0704700B587B00190019B96
:102C80005B78002B00F0BC80019B9B78002B60D010
:102C9000019B0C330593059B1B680493049B5B7895
:102CA000002B00F0AF8001990498FFF7C3FF019B50
:102CB00000225A70049B0C3301991846FFF7C6FE98
:102CC000049B9B68002B00F0A080049B9B685B78B2
:102CD000932B40F09A80049B0C331846FFF78BFE31
:102CE0000190019B002B00F09080049801F0CEF938
:102CF000039000220021039801F04EFC039801F09C
:102D00008FFB0290019B03F10C00029B08331B68B0
:102D10001946049B5B6A1A4606F09AFD019B07223E
:102D20001A70019B01225A70019B00229A70029B2B
:102D30000C331B68DAB2019BDA7001990498FFF733
:102D400001FF029B08331B6819460498FFF78AF9B4
:102D50005BE0019B9B680493049B5B78002B53D042
:102D6000049B9B68002B40D0049B9B685B78832B63
:102D70003BD1019B5B6819460498FFF773F90498EF
:102D800001F084F9039000220021039801F004FC73
:102D9000039801F045FB0290029B08331B6818461C
:102DA000019B03F10C01049B5B6A1A4606F050FD7F
:102DB000029B0C331B68002B06D0029B0C331B6854
:102DC0001A46019BDB781370029B08331B68194677
:102DD0000498FFF767F9019B00225A70049B0C339B
:102DE00001991846FFF732FE0FE0019B5B68194618
:102DF0000498FFF737F901990498FFF7A3FE04E060
:102E000000BF02E000BF00E000BF07B05DF804FBB8
:102E100000B58DB0039002910192039B002B02D06C
:102E2000029B002B06D16FF003010020FEF75AFF32
:102E30000023F9E0029B033323F003030C330793D1
:102E4000039BB3FA83F2079BB3FA83F313441F2B5C
:102E500006DC6FF003010020FEF744FF0023E3E0EF
:102E6000039B079A02FB03F30693019B002B46D0BA
:102E7000019B1B680893019B9B680B93019B1B693B
:102E80000A93019B5B6905930B9B002B0FD00B9B57
:102E900003F00303002B03D1019BDB68332B11D814
:102EA0006FF008010020FEF71DFF0023BCE0019B2E
:102EB000DB68002B06D06FF008010020FEF712FF40
:102EC0000023B1E00A9B002B0FD00A9B03F0030301
:102ED000002B03D1059A069B9A4216D26FF0090186
:102EE0000020FEF7FFFE00239EE0059B002B0CD088
:102EF0006FF009010020FEF7F5FE002394E00023A7
:102F0000089300230B9300230A930B9B002B23D1E0
:102F1000474BD3F8A030002B07D0454BD3F8A03057
:102F20001846FFF768FD0B9008E0414BD3F880305E
:102F3000012234211846FFF7F5FB0B900B9B002B69
:102F400006D16FF004010020FEF7CCFE00236BE0F9
:102F500001238DF8273002E000238DF827300A9BEB
:102F6000002B36D1324BDB6F002206991846FFF753
:102F7000D9FB0A900A9B002B20D16FF0040100209E
:102F8000FEF7B0FE9DF8273003F00103002B13D0AD
:102F9000274BD3F8A030002B07D0254BD3F8A03017
:102FA0000B991846FFF752FD06E0214BD3F880300D
:102FB0000B991846FFF72EFC002335E0069A0021F6
:102FC0000A9806F043FD9DF8273043F002038DF880
:102FD00027300B9B08221A700B9B01225A700B9B07
:102FE0009DF827209A700B9B089A5A600B9B002231
:102FF0009A600B9B029A5A620B9B00229A620B9B6F
:103000000022DA620B9B00221A630B9B03F10C0077
:103010000A9B079A0399FFF7A5FC054B054A1A6717
:103020000B98FEF7FEFF0B9B18460DB05DF804FBF6
:1030300010000020792C000810B588B00390029190
:10304000009313468DF80730039B0793079B002BD3
:1030500006D0079B1B78082B02D1029B002B07D1BF
:103060006FF003010798FEF73DFE6FF0030397E052
:10307000079B5B78002B07D16FF002010798FEF7E2
:1030800031FE6FF002038BE0079B9B68002B34D06E
:10309000079B9B685B78832B2FD102990798FEF7DB
:1030A000E1FF079800F0F2FF069001220021069848
:1030B00001F072FA069801F0B3F90590059B083308
:1030C0001B681846079B5B6A1A46029906F0C0FB0C
:1030D000059B0C331B68002B06D0059B0C331B682B
:1030E0001A469DF807301370059B08331B68194674
:1030F0000798FEF7D7FF002352E0079B0C331846D2
:10310000FFF779FC0490049B002B1FD0049B03F174
:103110000C00079B5B6A1A46029906F099FB049B18
:1031200007221A70049B01225A70049B00229A7095
:10313000049B9DF80720DA7004990798FFF702FDB9
:1031400002990798FEF78EFF002329E0009B002BD1
:1031500020D0009A02990798FEF772FFFFF7ECFC67
:1031600003461946079800F05FFF0099932001F08D
:1031700037FAEFF309831C4623460593059B083372
:10318000029A1A60059B0C339DF807201A606FF0B5
:10319000010305E002990798FEF76AFF6FF002034A
:1031A000184608B010BD10B588B003900291019286
:1031B0000093039B0793079B002B06D0079B1B786C
:1031C000082B02D1029B002B07D16FF00301079857
:1031D000FEF788FD6FF00303A4E0079B5B78002BEC
:1031E00007D16FF002010798FEF77CFD6FF0020334
:1031F00098E00798FFF7F2FC0690069B002B25D07D
:1032000006990798FFF716FD069B03F10C01079B33
:103210005B6A1A46029806F01BFB019B002B03D049
:10322000069BDA78019B1A7002990798FEF73AFF1D
:10323000069B00225A70079B0C3306991846FFF72D
:1032400005FC079B9B68002B6BD029E0009B002BA3
:103250001FD0009A02990798FEF718FFFFF76CFC41
:1032600003461946079800F0DFFE0099832001F01D
:10327000B7F9EFF309831C4623460593059B0833F2
:10328000029A1A60059B0C33019A1A606FF00103D1
:1032900048E002990798FEF70BFF6FF0020341E048
:1032A000079B9B685B78932B3BD1079B0C3318469D
:1032B000FFF7A1FB0690069B002B32D0079800F089
:1032C000E5FE049001220021049801F065F90498BC
:1032D00001F0A6F80590069B03F10C00059B08334E
:1032E0001B681946079B5B6A1A4606F0B1FA069BF3
:1032F00007221A70069B01225A70069B00229A70C0
:10330000059B0C331B68DAB2069BDA7006990798A6
:10331000FFF718FC059B08331B6819460798FEF752
:10332000A1FE0023184608B010BD00B589B0039077
:103330000291009313468DF80730039B0793079B78
:10334000002B09D0079B1B78082B05D1029B002B73
:1033500002D0009B002B07D06FF003010798FEF707
:10336000C1FC6FF0030345E0079B5B78002B07D19E
:103370006FF002010798FEF7B5FC6FF0020339E029
:10338000079B0C331846FFF736FB0690069B002B75
:103390002AD0069B03F10C00079B5B6A1A46029930
:1033A00006F056FA069B07221A70069B01225A70F5
:1033B000069B00229A70069B9DF80720DA70069BF8
:1033C00004330593059B029A1A60069B0833059304
:1033D000059B079A1A60069800F07AFD02990798F3
:1033E000FEF73AFE002305E002990798FEF740FE3B
:1033F0006FF00203184609B05DF804FB00B589B010
:103400000390029101920093039B0793079B002B6B
:1034100009D0079B1B78082B05D1029B002B02D0FB
:10342000009B002B07D06FF003010798FEF75AFCB2
:103430006FF0030337E0079B5B78002B07D16FF039
:1034400002010798FEF74EFC6FF002032BE007988D
:10345000FFF7C4FB0690069B002B1ED0069B03F1D2
:103460000C01079B5B6A1A46029806F0F1F9019B72
:10347000002B03D0069BDA78019B1A7002990798FB
:10348000FEF710FE069B0C330593059B079A1A6006
:10349000069800F01DFD002305E002990798FEF74D
:1034A00007FE6FF00203184609B05DF804FB000048
:1034B00000B58BB0039002910192019A0299039892
:1034C000FEF7A8FDEFF305830993099B002B0BD1B1
:1034D000EFF310830893089B002B05D1EFF31183C2
:1034E0000793079B002B06D06FF005010020FEF725
:1034F000F9FB00231EE0039B0693029B0593019BAF
:10350000049306980599049B1A460C4B9C46EFF3CE
:10351000148313F0020F0AD113F0040FEFF30883A2
:103520000CBF203B683B23F0070383F3098800DFCF
:10353000034600BF18460BB05DF804FB112E0008CF
:1035400010B58CB003900291009313468DF80730AC
:103550009DF80720009B02990398FEF767FDEFF3A3
:1035600005830B930B9B002B0BD1EFF310830A9376
:103570000A9B002B05D1EFF311830993099B002BC4
:1035800008D09DF80720009B02990398FFF7CDFE15
:10359000034616E0039B0893029B07939DF80730B0
:1035A0008DF81B30009B0593089B1846079B194616
:1035B0009DF81B301A46059B034CA44600DF0346CA
:1035C00000BF18460CB010BD3930000810B58CB0E3
:1035D0000390029101920093009B019A0299039833
:1035E000FEF74CFDEFF305830B930B9B002B0BD1E8
:1035F000EFF310830A930A9B002B05D1EFF311839D
:103600000993099B002B07D0009B019A029903980C
:10361000FFF7F4FE034613E0039B0893029B079316
:10362000019B0693009B0593089B1846079B194630
:10363000069B1A46059B044CA44600DF034600BFC8
:1036400018460CB010BD00BFA7310008014B5B69E4
:10365000184670471000002000B585B00190019B0E
:10366000039332E0039B5B690193039BDB7803F0D8
:103670000803002B27D0039B00221A760021039811
:10368000FEF7B8FC039B9B68002B1CD0039800F04E
:10369000FDFC029000220021029800F07DFF039BB8
:1036A000029ADA60029BDA6A039B5A61039B00224A
:1036B0001A61029B039ADA62039B01221A760121A6
:1036C0000398FEF787FC019B0393039B002BC9D152
:1036D00000BF05B05DF804FB00B587B00190019B09
:1036E000002B26D0019B1B680293019B5B6804930F
:1036F000019B9B680593059B002B0FD0059B03F056
:103700000303002B03D1019BDB681B2B17D86FF041
:1037100008010020FEF7D2FA00235EE0019BDB687F
:10372000002B0CD06FF008010020FEF7C7FA002331
:1037300053E0002302930023049300230593059B89
:10374000002B23D1274BD3F89430002B07D0254BE7
:10375000D3F894301846FFF74EF9059008E0214B56
:10376000D3F8803001221C211846FEF7DBFF0590BC
:10377000059B002B06D16FF004010020FEF79EFA96
:1037800000232AE001238DF80F3002E000238DF89A
:103790000F30059B04221A70059B01225A70059B6D
:1037A0009DF80F209A70049BDAB2059BDA70059B96
:1037B000029A5A60059B00229A60059B0022DA60FB
:1037C000059B00221A61059B00225A61059B00227D
:1037D0001A760598FEF7E8FB059B184607B05DF8DA
:1037E00004FB00BF1000002000B585B001900091DF
:1037F000019B0393FFF72AFF0290029B002B07D146
:103800006FF007010398FEF759FA4FF0FF3395E088
:10381000039B002B03D0039B1B78042B07D06FF076
:1038200003010398FEF74AFA6FF0030386E0039B57
:103830005B78002B07D16FF002010398FEF73EFA88
:103840006FF002037AE0039B1B7E002B1FD1039BCA
:10385000029ADA60029BDA6A039B5A61039B002298
:103860001A61029BDB6A002B03D0029BDB6A039A7E
:103870001A61029B039ADA62039B01221A76039B68
:103880001B7E19460398FEF7A5FB002356E0039B19
:10389000DB7803F00103002B1ED0039BDA68029B48
:1038A0009A4219D1039B1B7EFF2B07D16FF00F01AA
:1038B0000398FEF703FA6FF002033FE0039B1B7EC1
:1038C0000133DAB2039B1A76039B1B7E19460398D9
:1038D000FEF780FB002331E0009B002B29D0039BE7
:1038E000DB7803F00203002B14D0039BDB6893F911
:1038F0002020029B93F920309A420BDA039BDB686D
:10390000029A92F9202083F82020039BDB68184656
:1039100000F0E8FB00990398FEF751FB0299039829
:1039200000F082FB0099532000F05AFE6FF0010373
:1039300004E00398FEF754FB6FF00203184605B04D
:103940005DF804FB00B589B00190019B0593FFF77A
:103950007DFE0490049B002B07D16FF007010598B2
:10396000FEF7ACF94FF0FF33ADE0059B002B03D021
:10397000059B1B78042B07D06FF003010598FEF719
:103980009DF96FF003039EE0059B5B78002B07D148
:103990006FF002010598FEF791F96FF0020392E0D3
:1039A000059BDA68049B9A4207D06FF00D010598D9
:1039B000FEF784F96FF0020385E0059B1B7E002B68
:1039C00007D16FF00E010598FEF778F96FF002034A
:1039D00079E0059B1B7E013BDAB2059B1A76059BBD
:1039E0001B7E19460598FEF705FB059B1B7E002BE9
:1039F00001D0002367E0059B5B69002B04D0059B89
:103A00005B69059A12691A61059B1B69002B05D039
:103A1000059B1B69059A52695A6103E0059B5A6927
:103A2000049BDA62059BDB7803F00203002B25D0B0
:103A3000049B93F821308DF81B30049BDB6A0793BD
:103A400014E0079B9B68002B0DD0079B9B6893F9A4
:103A500020309DF91B209A4205DA079B9B6893F85A
:103A600020308DF81B30079B5B690793079B002B69
:103A7000E7D1049B9DF81B2083F82020059B9B68C1
:103A8000002B1CD0059800F001FB039000220021C0
:103A9000039800F081FD059B039ADA60039BDA6AC4
:103AA000059B5A61059B00221A61039B059ADA6205
:103AB000059B01221A7601210598FEF78BFA00205A
:103AC00000F01EFD0023184609B05DF804FB00005D
:103AD00000B587B001900198FEF761FAEFF3058316
:103AE0000593059B002B0BD1EFF310830493049BEC
:103AF000002B05D1EFF311830393039B002B06D01A
:103B00006FF005010020FEF7D9F8002318E0019BB3
:103B10000293029B18460C4B9C46EFF3148313F060
:103B2000020F0AD113F0040FEFF308830CBF203B00
:103B3000683B23F0070383F3098800DF034600BFD7
:103B4000184607B05DF804FBD936000800B589B007
:103B50000190009100990198FEF72BFAEFF305838D
:103B60000793079B002B0BD1EFF310830693069B63
:103B7000002B05D1EFF311830593059B002B07D094
:103B80006FF005010198FEF799F86FF005030BE05F
:103B9000019B0493009B0393049B18460399044BD9
:103BA0009C4600DF034600BF184609B05DF804FBE1
:103BB000E937000800B587B001900198FEF715FAC3
:103BC000EFF305830593059B002B0BD1EFF31083D7
:103BD0000493049B002B05D1EFF311830393039B04
:103BE000002B07D06FF005010198FEF767F86FF022
:103BF000050308E0019B0293029B1846044B9C4678
:103C000000DF034600BF184607B05DF804FB00BFA5
:103C100045390008024B4FF080525A6000BF704790
:103C200000ED00E010B483B001900B46ADF8023017
:103C3000019BBDF80220D3E85F1F8A4202D8BFF380
:103C40002F8F04E0481CC3E8540F04B1F3E78CB293
:103C50002346184603B05DF8044B704710B483B098
:103C600001900B46ADF80230019BBDF80220D3E86D
:103C70005F1F481C824200D80020C3E8540F04B1E3
:103C8000F5E78CB22346184603B05DF8044B704745
:103C900010B483B00190019BD3E85F2F12B9BFF33A
:103CA0002F8F04E0511EC3E8501F00B1F4E794B217
:103CB0002346184603B05DF8044B7047014B1B7A4E
:103CC000184670471000002000B587B00190154BD2
:103CD000B3F85430ADF81230BDF81230194612481E
:103CE000FFF7A0FF03461A46BDF81230934211D9E0
:103CF000BDF8123019460D48FFF7B0FF0346039395
:103D0000084BDA6D039B9B001344019A1A60012350
:103D1000059301E000230593059B184607B05DF865
:103D200004FB00BF10000020660000206800002097
:103D300000B585B0104BB3F85430ADF80A300F48D9
:103D4000FFF7A6FF0346002B0FD0BDF80A30194637
:103D50000B48FFF783FF03460193074BDA6D019B86
:103D60009B0013441B68039301E000230393039B10
:103D7000184605B05DF804FB100000206600002026
:103D80006A00002000B583B001F036F92D4BDB68E6
:103D900001332C4AD3602B4B1B6D002B02D0294BD7
:103DA0001B6D984700F0B2FA002000F0A9FB254BEC
:103DB0001B6C002B41D0234B9A6B224B9B699A4280
:103DC00008D0204B9B691F4A93631E4B1B6C1D4AF6
:103DD000D36332E01B4BDB6B002B04D0194BDB6B46
:103DE000013B184AD363174BDB6B002B25D1FFF740
:103DF00065FF0346022B20D1124B5B6A0193019BA6
:103E0000002B1AD0019B93F920200E4B9B6B93F94A
:103E100020309A4211D1019800F082F9094B9B6B36
:103E2000184600F097F9019800F03EFB054A019B07
:103E30009363044B1B6C034AD36300BF03B05DF86C
:103E400004FB00BF1000002000B583B0FFF770FF37
:103E50000190019B002B30D0019B1B78013B062B6E
:103E600029D801A252F823F0853E0008B73E000889
:103E70008F3E0008B73E0008993E0008A33E0008A8
:103E8000AD3E0008114B1B6E0198984714E00F4B94
:103E90005B6E019898470FE00C4B9B6E019898471A
:103EA0000AE00A4BDB6E0198984705E0074B1B6F51
:103EB0000198984700E000BFC8E700BF002000F06D
:103EC0001FFB00BF03B05DF804FB00BF1000002023
:103ED00000B583B001900198FFF7F6FE0346002B72
:103EE0000BD00A4B5B7ADBB2002B02D1FFF792FEBC
:103EF00007E0064B01229A7203E001990220FDF7C8
:103F000033FE00BF03B05DF804FB00BF10000020CB
:103F100010B483B001900091019B009A53E8001FF8
:103F200001EA0200904203D0BFF32F8F002105E089
:103F300021EA020043E8000404B1EFE70C462346FF
:103F4000184603B05DF8044B704710B483B001907D
:103F50000091019B009A53E8001F114203D1BFF367
:103F60002F8F002105E021EA020043E8000404B19C
:103F7000F1E70C462346184603B05DF8044B704742
:103F8000014B1B7A1846704710000020014B5B69FB
:103F9000184670471000002082B00190024A019B31
:103FA000536100BF02B070471000002000B587B019
:103FB000039002910192019B03F00203002B14D1A4
:103FC000019B03F00103002B07D0039B28330299C8
:103FD0001846FFF79DFF059021E0039B28330299C7
:103FE0001846FFF7B2FF059019E0039B9B6A059303
:103FF000019B03F00103002B05D0059A029B1A4098
:10400000029B9A4209D1019B03F00103002B06D1C8
:10401000059A029B1340002B01D100230593059BB9
:10402000184607B05DF804FB86B001900091009B34
:10403000002B28D0009B93F920300393019B05931C
:10404000019B9B68049304E0049B0593049B9B687D
:104050000493049B002B06D0049B93F920301A464E
:10406000039B9A42F0DA009B059ADA60009B049A5F
:104070009A60059B009A9A60049B002B04D0049BD5
:10408000009ADA6000E000BF06B0704784B001908B
:10409000019B9B680393039B002B0ED0039B9A68A4
:1040A000019B9A60039B9B68002B03D0039B9B683A
:1040B000019ADA60039B0022DA60039B184604B081
:1040C000704782B0019002E0019BDB680193019B85
:1040D000002B03D0019B1B78012BF5D0019B1846C8
:1040E00002B0704700B585B00190019B039305E0D5
:1040F000039BDB680393039B002B0DD0039B1B7872
:10410000012BF5D0039B0293019800F009F8019967
:104110000298FFF789FF00E000BF05B05DF804FBDF
:1041200082B00190019BDB68002B10D0019BDB6803
:10413000019A92689A60019B9B68002B04D0019BB6
:104140009B68019AD268DA60019B0022DA6000BFA6
:1041500002B0704700B583B00190019B01225A70F4
:1041600001990348FFF760FF00BF03B05DF804FB4F
:104170002C00002084B001900091009BB3F1FF3F20
:1041800027D100230393304B1B6B029304E0029B67
:104190000393029B1B690293029B002BF7D1019BA7
:1041A000009ADA61019B039A5A61019B029A1A6193
:1041B000039B002B03D0039B019A1A6102E0224A61
:1041C000019B1363029B002B3AD0029B019A5A6118
:1041D00036E0002303931C4BDB6A029309E0029B49
:1041E000DB69009AD31A0093029B0393029B1B691D
:1041F0000293029B002B04D0029BDA69009B9A4237
:10420000EDD9019B009ADA61019B039A5A61019BE7
:10421000029A1A61039B002B03D0039B019A1A6137
:1042200002E0094A019BD362029B002B08D0029B4B
:10423000DA69009BD21A029BDA61029B019A5A61E9
:1042400000BF04B0704700BF1000002082B0019092
:10425000019BDB69B3F1FF3F23D1019B5B69002B1D
:1042600004D1294B1A6B019B9A4247D1019B1B69D0
:10427000002B04D0019B1B69019A52695A61019B72
:104280005B69002B08D0019B5B69019A12691A6176
:10429000019B00225A6134E0019B1B691A4A136397
:1042A0002FE0019B5B69002B04D1174BDA6A019B5D
:1042B0009A4225D1019B1B69002B0DD0019B1B69E4
:1042C000019A1269D169019AD2690A44DA61019BA3
:1042D0001B69019A52695A61019B5B69002B08D0E6
:1042E000019B5B69019A12691A61019B00225A6164
:1042F00007E0019B1B69044AD36202E000BF00E0B3
:1043000000BF02B0704700BF1000002000B583B0AE
:10431000424BDB6A0193019B002B7AD0019BDB6946
:104320005A1E019BDA61019BDB69002B72D1019B54
:104330005B78532B22D0532B06DC332B13D0432B2B
:1043400014D0132B0CD041E0732B27D0732B02DC3D
:10435000632B1BD03AE0832B28D0932B2ED035E053
:10436000FDF710FE32E0FDF7FFFD2FE00198FFF7AB
:10437000A8FE03461846FDF70DFE27E00198FFF75B
:10438000A0FE03461846FDF720FE1FE00198FFF748
:1043900098FE03461846FDF733FE17E00198FFF735
:1043A00090FE03461846FDF730FE0FE00198FFF738
:1043B00088FE03461846FDF770FE07E00198FFF7F8
:1043C00080FE03461846FDF742FE00BF019800F04C
:1043D00027F803461B6819460198FDF7B5FD0198BB
:1043E000FFF79EFE0198FFF7B5FE019B1B69019345
:1043F000019B002B03D0019BDB69002B97D0019B15
:10440000002B02D0019B00225A61044A019BD36217
:1044100000E000BF03B05DF804FB00BF1000002007
:1044200082B00190019B9A6B019B93F8223003F0BC
:104430001003002B01D1602300E020231344184611
:1044400002B0704786B00190019B01225A70019B17
:1044500093F920300393134B0593059B9B680493BA
:1044600004E0049B0593049B9B680493049B002B2E
:1044700006D0049B93F920301A46039B9A42F0DC45
:10448000019B059ADA60019B049A9A60059B019A48
:104490009A60049B002B02D0049B019ADA6000BF53
:1044A00006B070472C00002000B583B00190019B3E
:1044B00002225A70054A019B936100F0CBF80198E3
:1044C000FDF748FD00BF03B05DF804FB10000020BD
:1044D00008B5094B1B68002B0CD0074B1B681B69E8
:1044E000002B07D0044B1B681B69044A9269526C6D
:1044F0001046984700BF08BD682300201000002028
:1045000000B585B00190FFF73BFD03468DF80F30F5
:10451000FFF73CFD0290019B002B1ED11D4B5B6AF7
:1045200001939DF80F30022B30D1029B002B2DD030
:10453000019B002B2AD0019B93F92020029B93F929
:1045400020309A4222DD0198FFF7EAFD0298FFF73A
:1045500079FF0198FFF7A8FF18E09DF80F30022BB4
:1045600011D1029B002B0ED0019B93F92020029BBE
:1045700093F920309A4206DD0298FFF763FF019815
:10458000FFF792FF02E00198FFF7E4FD00BF05B0DE
:104590005DF804FB1000002000B587B00390029185
:1045A00013468DF8073002990398FDF7CDFC039868
:1045B000FFF736FF0590059B029A1A600398FFF7F4
:1045C00045FE9DF80730002B03D00398FFF798FFB6
:1045D00002E00398FFF7BEFD00BF07B05DF804FBE3
:1045E00000B585B0034600918DF80730FFF7CEFC8B
:1045F0000390039B002B01D1002323E0FFF7C0FCB5
:104600000346022B04D00398FFF78AFD002319E02C
:104610000E4B5B6A002B01D1002313E00099039835
:10462000FDF78CFC039B9DF807205A7000990398B6
:10463000FFF7A0FD0648FFF729FD03900398FFF759
:1046400033FF0123184605B05DF804FB100000207D
:104650002C00002000B583B0FFF798FC0190019B6F
:10466000002B0FD0019B9B6B019A126B934205D9D3
:10467000019B1B6B1B68054A934203D001990120E3
:10468000FDF772FA00BF03B05DF804FBA52E5AE2F5
:1046900000B585B00190019B5B78002B23D0019B76
:1046A0005B78042B1FD0019B5B78332B1CD1019BC3
:1046B000596A019B93F823301A460198FFF776FC5C
:1046C0000390039B002B0FD0002203990198FFF762
:1046D00063FF019B586A019B93F82330039A1946A4
:1046E000FDF744FC00E000BF05B05DF804FB0000EE
:1046F00000B58FB00390029101920093039B002BB1
:1047000006D16FF003010020FDF7C4FA0023ACE1ED
:10471000019B002B54D0019B1B680793019B5B6896
:104720000C93019B9B680D93019B1B690B93019B51
:104730005B690A93019B9B6909930D9B002B0FD02A
:104740000D9B03F00303002B03D1019BDB68472B78
:1047500011D86FF008010020FDF79CFA002384E1D6
:10476000019BDB68002B06D06FF008010020FDF7ED
:1047700091FA002379E10B9B002B0ED00B9B03F0E9
:104780000703002B02D10A9B002B06D16FF00A0110
:104790000020FDF77FFA002367E1099B002B02D17F
:1047A0001823099318E0099B002B02DD099B382B85
:1047B00012DD6FF00B010020FDF76CFA002354E1CD
:1047C0000023079300230C9300230D9300230B93E6
:1047D00000230A93182309930A9B002B0ED00A9BEF
:1047E00003F00703002B02D10A9B472B06D86FF07A
:1047F0000A010020FDF74EFA002336E10D9B002B45
:1048000023D19C4BD3F88830002B07D0994BD3F899
:1048100088301846FEF7EFF80D9008E0954BD3F876
:104820008030012248211846FDF77CFF0D900D9B3A
:10483000002B06D16FF004010020FDF72BFA0023B6
:1048400013E101238DF8233002E000238DF823309B
:104850000B9B002B56D10A9B002B21D1864B5B6D05
:104860000A93844BD3F88430002B10D0814BD3F8BB
:1048700084301846FEF7BFF80B900B9B002B17D027
:104880009DF8233043F010038DF8233010E0794B6E
:104890005B6F00220A991846FDF744FF0B9007E072
:1048A000744B5B6F00220A991846FDF73BFF0B9093
:1048B0000B9B002B20D16FF004010020FDF7EAF9DB
:1048C0009DF8233003F00103002B13D0694BD3F87C
:1048D0008830002B07D0674BD3F888300D991846E5
:1048E000FEF7B4F806E0634BD3F880300D99184614
:1048F000FDF790FF0023B8E09DF8233043F002035A
:104900008DF823300D9B01221A700D9B01225A70E5
:104910000D9B9DF823209A700C9BDAB20D9BDA70E8
:104920000D9B079A5A600D9B00229A600D9B0022F6
:10493000DA600D9B00221A610D9B00225A610D9BCB
:1049400000229A610D9B0022DA61099B5AB20D9BED
:1049500083F82020099B5AB20D9B83F821200D9BE0
:10496000FD2283F822200D9B002283F823200D9B3B
:1049700000225A620D9B00229A620D9B0022DA628D
:104980000D9B0B9A1A630D9B0A9A5A630B9A0A9B0A
:104990001344A3F140020D9B9A63039A0D9BDA63C3
:1049A0000B9B0693069B1A1D0692344A1A60324BE3
:1049B0001B6803F00403002B11D00A9B9B08113BDA
:1049C000059308E0069B1A1D06924FF0CC321A6040
:1049D000059B013B0593059B002BF3D102E00D9B4A
:1049E0009B6B06930D23059307E0069B1A1D069209
:1049F00000221A60059B013B0593059B002BF4D117
:104A0000069B1A1D06921E4A1A60069B1A1D0692E4
:104A1000039A1A60069B1A1D06924FF080721A6064
:104A2000069B203B029A1A60124B164A1A660D9892
:104A3000FDF76FFA144B1B68002B0FD0124B1B684D
:104A40009B68002B0AD0104B1B689B680D9A00993D
:104A50001046984702460D9B5A6402E00D9B009A4F
:104A60005A640D98FFF74CFD0D9B18460FB05DF88A
:104A700004FB00BF10000020DC160108A52E5AE23E
:104A8000A54D0008914600086823002000B585B0B8
:104A90000190019B0393039B002B03D0039B1B7886
:104AA000012B05D000210398FDF738FA002311E00F
:104AB000039B5B78002B05D100210398FDF72EFAAC
:104AC000002307E0039B5B6819460398FDF726FA6D
:104AD000039B5B68184605B05DF804FB00B583B026
:104AE000FFF754FA01900198FDF71EFA019B184652
:104AF00003B05DF804FB000000B583B00190019B9A
:104B000000225A70019B9B7803F00203002B17D000
:104B1000019B9B7803F01003002B09D0174BD3F8AF
:104B20008420019B1B6B19461046FDF78FFF07E0A1
:104B3000124B5A6F019B1B6B19461046FDF76AFE1C
:104B4000019B9B7803F00103002B13D00B4BD3F890
:104B50008830002B07D0094BD3F8883001991846CC
:104B6000FDF774FF06E0054BD3F880300199184635
:104B7000FDF750FE00BF03B05DF804FB10000020FD
:104B800010B582B0FFF702FA0190019B002B54D0C0
:104B9000019BDB6A1846FEF75FFD019B9B69002BBA
:104BA0000BD0019B9B69002200211846FFF7F4FC03
:104BB000019B9B691846FDF7BCF9FFF7E1F9034635
:104BC000022B3CD11F4B5B6A002B38D0EFF30983DB
:104BD0001C462246019B9A631B48FFF757FA03467F
:104BE0001846FFF761FC0020FFF7D6F9019BDB7840
:104BF00003F00103002B03D0019B9B69002B03D022
:104C00000198FFF779FF14E0019B04225A70019B81
:104C10000022DA600B4B5A6B019B9A60094B5B6B6D
:104C2000002B03D0074B5B6B019ADA60054A019BAE
:104C300053630198FDF793F902E000BF00E000BF65
:104C400002B010BD100000202C00002000B585B07F
:104C50000390029101920023019A0299039800F0B7
:104C600005F80346184605B05DF804FB10B58CB096
:104C70000390029101920093019A02990398FDF723
:104C800041F9EFF305830B930B9B002B0BD1EFF353
:104C900010830A930A9B002B05D1EFF3118309932C
:104CA000099B002B06D06FF005010020FCF7F2FFF6
:104CB000002323E0039B0893029B0793019B069329
:104CC000009B0593089B1846079B1946069B1A46AE
:104CD000059B0C4CA446EFF3148414F0020F0AD188
:104CE00014F0040FEFF308840CBF203C683C24F060
:104CF000070484F3098800DF034600BF18460CB0A0
:104D000010BD00BFF146000800B587B00190EFF379
:104D100005830593059B002B0BD1EFF310830493C0
:104D2000049B002B05D1EFF311830393039B002B0E
:104D300005D000210198FDF7F1F8002308E0019B60
:104D40000293029B1846044B9C4600DF034600BFBB
:104D5000184607B05DF804FB8D4A000800B585B021
:104D6000EFF305830393039B002B0BD1EFF3108329
:104D70000293029B002B05D1EFF311830193019B5A
:104D8000002B04D00020FDF7CFF8002304E0044BF3
:104D90009C4600DF034600BF184605B05DF804FBE3
:104DA000DD4A000808B5FCF7ADFF044B9C4600DF68
:104DB0004FF0FF310020FCF76DFFFEE7814B00084C
:104DC00084B001900091002303931C4B5B6C029311
:104DD00009E0029B1B69009AD31A0093029B03937C
:104DE000029BDB680293029B002B04D0029B1A6992
:104DF000009B9A42EDD9019B009A1A61019B039A8C
:104E00009A60019B029ADA60029B002B09D0029BF8
:104E10001A69019B1B69D21A029B1A61029B019AB3
:104E20009A60039B002B03D0039B019ADA6002E097
:104E3000024A019B536400BF04B070471000002079
:104E400082B00190019BDB68002B04D0019BDB68E2
:104E5000019A92689A60019BDB68024A536400BF22
:104E600002B070471000002000B583B01E4B5B6C91
:104E70000193019B002B32D0019B1B695A1E019BA1
:104E80001A6124E00198FFF7DBFF174BD86C019BF8
:104E900003F1180100230022FEF752FB0090009B53
:104EA000002B03D001990320FCF75EFE019BDB7809
:104EB000012B06D1019B5B6919460198FFF780FF22
:104EC00002E0019B01225A70074B5B6C0193019B2E
:104ED000002B05D0019B1B69002BD3D000E000BF45
:104EE00003B05DF804FB00BF1000002000B587B0E0
:104EF0000190174B586E164B1B6E1A460821FEF791
:104F0000D7FA0246134BDA64124BDB6C002B1AD033
:104F1000104B114A1A650F4BD86C03A94FF0FF33A1
:104F20000022FEF753FB0590059B002BF3D1039B5A
:104F30001A46049B19461046FDF726F8039B049A6F
:104F400010469847E7E700BF07B05DF804FB00BFD5
:104F5000DC16010810000020694E000884B00190A2
:104F60000091019B002B02D14FF0FF331EE0114B4B
:104F70001A68019BB2FBF3F3013B0393039BB3F16C
:104F8000807F02D34FF0FF3310E00B4BFF2283F8FA
:104F900023200A4B06221A60084A039B5360074BE2
:104FA00000229A60064B00221A700023184604B0B3
:104FB000704700BFB400002000ED00E010E000E00A
:104FC0001C120020094B1B78002B06D0074B002237
:104FD0001A70074B4FF080625A60064A054B1B68F7
:104FE00043F0010313600023184670471C12002091
:104FF00000ED00E010E000E0024B1B6800231846C3
:10500000704700BF10E000E04FF0FF3318467047D4
:1050100000B583B00190064B1B68002B03D0044BF6
:105020001B680198984700BF03B05DF804FB00BF00
:105030002012002000B583B001900198FCF7FCFE1F
:105040000346184603B05DF804FB0000154A154BF3
:10505000D3F8883043F47003C2F88830124A124BF8
:105060001B6843F0010313600F4B00229A600E4A45
:105070000D4B1B6823F0A85323F4102313600A4B35
:105080004FF48052DA60084A074B1B6823F48023F0
:105090001360054B00229A61024B044A9A6000BFDC
:1050A000704700BF00ED00E0001002400000000863
:1050B00008B500F007F80346002B00D1FEE700BF5B
:1050C00008BD000000B5AFB029AB00221A605A60DD
:1050D0009A60DA601A6118AB44220021184604F085
:1050E000B5FC6B4660220021184604F0AFFC042397
:1050F00018930023229301231A9318AB184600F04B
:1051000033F90346002B05D1274A274B1B6843F090
:105110000403136001F040FA1323189301231E9334
:105120000023199300231B9300231F93B023209384
:1051300002232293012323930623249328232593D8
:1051400007232693042327930423289318AB184698
:1051500000F00AF90346002B01D0002320E001F003
:105160002DFA4FF4005300934FF0406312936B46B7
:10517000184600F0ABFF0F23299303232A93002343
:105180002B9300232C9300232D9329AB0421184645
:1051900000F0ACFC0346002B01D0002300E001230B
:1051A00018462FB05DF804FB00100240DFF820D055
:1051B000002103E0074B5B58435004310648074B7E
:1051C00042189A42F6D3FFF741FFFBF731F87047D8
:1051D00000C000205C1C0108000000209009002095
:1051E000FEE708B5032000F03BF80F2002F09EFC1C
:1051F00000F003F80023184608BD00BF7047000008
:10520000034B1B680133024A136000BF704700BFA5
:105210006C230020014B1B68184670476C2300204C
:1052200084B00190019B03F0070303930B4BDB68F1
:105230000293029A4FF6FF0313400293039B1A0254
:10524000029B134343F0BF6343F400330293034ACA
:10525000029BD36000BF04B0704700BF00ED00E0C8
:1052600000B583B001900198FFF7DAFF00BF03B0EB
:105270005DF804FB00B583B001900B468DF8033058
:10528000019B002B09D1134B5B6903F40073B3F549
:10529000007F0BD100F034F808E00E4B5B6903F49B
:1052A0000073B3F5007F01D000F020F80A4A0A4BE2
:1052B0001B6923F0040313619DF80330012B01D116
:1052C00030BF02E040BF20BF20BF00BF03B05DF889
:1052D00004FB00BF0070004000ED00E0024B1B68C3
:1052E00003F4C0631846704700700040034A034B44
:1052F0001B6843F48043136000BF70470070004098
:1053000082B000230193154A144B1B6823F4804399
:105310001360134B1B68134AA2FB03239B0C32221E
:1053200002FB03F3019302E0019B013B0193019B0C
:10533000002B06D0094B5B6903F40073B3F5007FC3
:10534000F2D0064B5B6903F40073B3F5007F01D123
:10535000032300E00023184602B0704700700040AD
:10536000B400002083DE1B4300B58DB00190002304
:105370000A93019B1B6803F01003002B00F0DB80F5
:10538000A24B9B6803F00C03002B40F084809F4BE2
:105390001B6803F00203002B05D0019B9B69002BC7
:1053A00001D101239CE3019B1A6A984B1B6803F00F
:1053B0000803002B04D0954B1B6803F0F00305E0B5
:1053C000924BD3F894301B0903F0F0039A4223D98F
:1053D000019B1B6A184600F017FE0346002B01D004
:1053E00001237DE3894A894B1B6843F0080313605E
:1053F0008649864B1B6823F0F002019B1B6A13430E
:105400000B608249814B5B6823F47F42019BDB691F
:105410001B0213434B6022E07C4A7C4B1B6843F029
:10542000080313607949794B1B6823F0F002019B54
:105430001B6A13430B607549744B5B6823F47F420E
:10544000019BDB691B0213434B60019B1B6A1846DF
:1054500000F0DAFD0346002B01D0012340E300F009
:1054600067FC0146694B9B6803F0F002F023099347
:10547000099B93FAA3F30893089BB3FA83F322FAE8
:1054800003F3634AD35C21FA03F3624A13600F20EB
:1054900002F04CFB4FE0019B9B69002B32D05B4A32
:1054A0005A4B1B6843F001031360FFF7B3FE0A90E9
:1054B00008E0FFF7AFFE02460A9BD31A022B01D980
:1054C00003230DE3514B1B6803F00203002BF0D0C4
:1054D0004E4A4E4B1B6843F0080313604B494B4B3D
:1054E0001B6823F0F002019B1B6A13430B604749C2
:1054F000464B5B6823F47F42019BDB691B0213432D
:105500004B6018E0414A414B1B6823F001031360D4
:10551000FFF780FE0A9008E0FFF77CFE02460A9B38
:10552000D31A022B01D90323DAE2384B1B6803F0AC
:105530000203002BF0D1019B1B6803F00103002B39
:105540007BD0324B9B6803F00C03082B0BD02F4B06
:105550009B6803F00C030C2B11D12C4BDB6803F080
:105560000303032B0BD1294B1B6803F40033002BDF
:1055700062D0019B5B68002B5ED10123B0E2019BEE
:105580005B68B3F5803F06D1204A204B1B6843F48B
:10559000803313601DE0019B5B68B3F5A02F0CD135
:1055A0001A4A1A4B1B6843F480231360174A174B9F
:1055B0001B6843F4803313600BE0144A134B1B68E1
:1055C00023F480331360114A104B1B6823F48023AB
:1055D0001360019B5B68002B13D0FFF71BFE0A9042
:1055E00008E0FFF717FE02460A9BD31AC82B01D921
:1055F000032375E2054B1B6803F40033002BF0D046
:105600001BE0FFF707FE0A900FE000BF001002400A
:1056100088180108B4000020FFF7FCFD02460A9B31
:10562000D31AC82B01D903235AE2B04B1B6803F4E9
:105630000033002BF0D100E000BF019B1B6803F09A
:105640000203002B7FD0A94B9B6803F00C03042BB3
:105650000BD0A64B9B6803F00C030C2B27D1A34B5C
:10566000DB6803F00303022B21D1A04B1B6803F47A
:105670008063002B05D0019BDB68002B01D1012347
:105680002EE29A48994B5B6823F0F852019B196906
:105690004FF0F8530793079B93FAA3F30693069BE7
:1056A000B3FA83F301FA03F3134343604BE0019B26
:1056B000DB68002B2ED08D4A8C4B1B6843F4807323
:1056C0001360FFF7A7FD0A9008E0FFF7A3FD02466D
:1056D0000A9BD31A022B01D9032301E2834B1B68D7
:1056E00003F48063002BF0D08048804B5B6823F08C
:1056F000F852019B19694FF0F8530593059B93FAF3
:10570000A3F30493049BB3FA83F301FA03F3134363
:10571000436018E0754A754B1B6823F4807313606F
:10572000FFF778FD0A9008E0FFF774FD02460A9B38
:10573000D31A022B01D90323D2E16C4B1B6803F46B
:105740008063002BF0D1019B1B6803F00803002B42
:105750003CD0019B5B69002B1CD0644A634BD3F89F
:10576000943043F00103C2F89430FFF753FD0A90E0
:1057700008E0FFF74FFD02460A9BD31A022B01D91E
:105780000323ADE1594BD3F8943003F00203002B0F
:10579000EFD01BE0554A554BD3F8943023F001036A
:1057A000C2F89430FFF736FD0A9008E0FFF732FDAB
:1057B00002460A9BD31A022B01D9032390E14B4BDB
:1057C000D3F8943003F00203002BEFD1019B1B6848
:1057D00003F00403002B00F0A98000238DF82F3084
:1057E000424B9B6D03F08053002B0ED13F4A3F4B41
:1057F0009B6D43F0805393653C4B9B6D03F080534E
:105800000393039B01238DF82F30394B1B6803F45E
:105810008073002B18D1364A354B1B6843F48073D4
:105820001360FFF7F7FC0A9008E0FFF7F3FC02466D
:105830000A9BD31A022B01D9032351E12C4B1B687D
:1058400003F48073002BF0D0019B9B68012B08D1DF
:10585000264A264BD3F8903043F00103C2F890302B
:1058600024E0019B9B68052B10D1204A1F4BD3F8E5
:10587000903043F00403C2F890301C4A1B4BD3F81D
:10588000903043F00103C2F890300FE0174A174BF5
:10589000D3F8903023F00103C2F89030134A134B31
:1058A000D3F8903023F00403C2F89030019B9B683A
:1058B000002B16D0FFF7AEFC0A900AE0FFF7AAFC17
:1058C00002460A9BD31A41F28832934201D903233C
:1058D00006E1064BD3F8903003F00203002BEDD025
:1058E0001AE0FFF797FC0A900FE000BF001002409B
:1058F00000700040FFF78EFC02460A9BD31A41F26B
:105900008832934201D90323EAE0774BD3F89030F1
:1059100003F00203002BEDD19DF82F30012B05D1B0
:10592000714A714B9B6D23F080539365019B1B68FB
:1059300003F02003002B3CD0019B5B6A002B1CD0A2
:10594000694A694BD3F8983043F00103C2F89830A4
:10595000FFF760FC0A9008E0FFF75CFC02460A9B38
:10596000D31A022B01D90323BAE05F4BD3F8983046
:1059700003F00203002BEFD01BE05B4A5A4BD3F835
:10598000983023F00103C2F89830FFF743FC0A90E7
:1059900008E0FFF73FFC02460A9BD31A022B01D90D
:1059A00003239DE0504BD3F8983003F00203002B03
:1059B000EFD1019B9B6A002B00F091804A4B9B68C2
:1059C00003F00C030C2B00F08880019B9B6A022BD8
:1059D00055D1454A444B1B6823F080731360FFF791
:1059E00019FC0A9008E0FFF715FC02460A9BD31A3F
:1059F000022B01D9032373E03B4B1B6803F00073B8
:105A0000002BF0D13849019B1B6B013B1A01019B14
:105A10005B6B1B021A43019BDB6A1A43019BDB6B26
:105A20005B08013B5B051A43019B1B6C5B08013B58
:105A30005B061A43019B9B6BDB061343CB602A4A30
:105A4000294B1B6843F080731360274A264BDB68A1
:105A500043F08073D360FFF7DDFB0A9008E0FFF7A7
:105A6000D9FB02460A9BD31A022B01D9032337E044
:105A70001D4B1B6803F00073002BF0D02FE01A4A77
:105A8000194B1B6823F080731360174B1B6803F0DE
:105A90000063002B05D1144A134BDB6823F003038A
:105AA000D360114A104BDB6823F0887323F48033F2
:105AB000D360FFF7AFFB0A9008E0FFF7ABFB0246AD
:105AC0000A9BD31A022B01D9032309E0064B1B685A
:105AD00003F00073002BF0D101E0012300E000236C
