:020000040800F2
:1000000000C0002089030008910300089303000842
:1000100095030008970300089903000800000000FA
:10002000000000000000000000000000D1020008F5
:100030009D030008000000005D0300086D03000838
:10004000A3030008A3030008A3030008A3030008F8
:10005000A3030008A3030008A3030008A3030008E8
:10006000A3030008A3030008A3030008A3030008D8
:10007000A3030008A3030008A3030008A3030008C8
:10008000A3030008A3030008A303000899240008A1
:1000900071240008A303000885240008A3030008B6
:1000A000A3030008A3030008A3030008A303000898
:1000B000A30300080000000000000000A3030008E4
:1000C000A3030008A3030008A3030008A303000878
:1000D000A3030008A3030008A3030008A303000868
:1000E000A3030008A30300080000000000000000B4
:1000F0000000000000000000000000000000000000
:1001000000000000A303000800000000A303000893
:100110000000000000000000A3030008A303000883
:10012000A3030008A3030008A3030008A303000817
:10013000A303000800000000000000000000000011
:10014000A3030008A3030008A3030008A3030008F7
:10015000A3030008A3030008A3030008A3030008E7
:10016000A3030008A3030008A30300080000000085
:10017000A3030008A3030008A3030008A3030008C7
:10018000A3030008A3030008A303000800F002F87B
:1001900006F09CF80AA090E8000C82448344AAF17F
:1001A0000107DA4501D106F091F8AFF2090EBAE87D
:1001B0000F0013F0010F18BFFB1A43F0010318479B
:1001C00038CF000058CF0000103A24BF78C878C15B
:1001D000FAD8520724BF30C830C144BF04680C604D
:1001E000704700000023002400250026103A28BF95
:1001F00078C1FBD8520728BF30C148BF0B60704799
:100200006E2900F08B85702900F0D58666290CF0E8
:10021000F48265290CF0F18267290CF0EE826129E5
:100220000CF0ED8203681B0A28BF41F080016929A8
:1002300000F03885642900F03585752900F0328595
:100240006F2900F06386782900F0A186E92900F083
:10025000FD85E42900F0FA85F52900F0F785EF29FE
:1002600000F06086F82900F0A0860368DB0928BF4B
:1002700041F08001632901F03F87732901F0448731
:10028000E32901F06F87F32901F07487002070479C
:100290001FB50CF0ADFA9DE8030000F068FC00F01B
:1002A00049FC0400002000210CF076FA401C60603C
:1002B000002000210CF086FAE06001F05FF900F008
:1002C00005F88DE80F0000F019FC1FBD01F03ABAE7
:1002D000EFF30980816911F8021C91BB01B590E828
:1002E0000F10E047BDE800508CE80300234B93E873
:1002F0000600914208BF704741B91EF0100F10D19F
:100300001F49086820F0010008600AE02CE9F00F9E
:100310001EF0100F08BF2CED108AC1F838C081F80C
:1003200022E01A6092F82210906B61F0FF0E1EF02E
:10033000100F08BFB0EC108AB0E8F00F80F3098806
:10034000704710B50F4A1368994206D852F82140F9
:100350000FC8A047EFF30984206010BD10B508F066
:1003600057FCBDE81040EFF3098CBFE710B509F06A
:1003700041F9BDE81040EFF3098CB7E730000020E9
:1003800034EF00E05CCB0008064880470648004791
:10039000FEE7FEE7FEE7FEE7FEE7FEE7FEE7FEE735
:1003A000FEE7FEE7014E00088D01000870470000DF
:1003B00010B500F0BFFB001D10BD00BFDDC3000085
:1003C00005F098BF0B3020F0070070472DE9F04191
:1003D00017460E460446FFF7F5FFA042054633D9FF
:1003E000002F1CBF06F10C00AFF30080304674688C
:1003F000F4B12168A94217D305F1080291423CBF2C
:100400006168416007D3626861194A602268521BC3
:100410000A6041602560002F1CBF06F10C00AFF39D
:100420000080201DBDE8F08120466468002CE0D1EA
:100430002946304600F087FB0028D7D1002F1CBF8B
:1004400006F10C00AFF300800020BDE8F08110B58C
:10045000044600F06AFB01682046BDE81040012216
:10046000B4E770B516460D46041F002808BF70BDDE
:10047000002E1CBF05F10C00AFF300802B4658681E
:10048000002818BFA04238BF0346F8D31968CA181D
:10049000A24218BF5C6003D122681C461144196057
:1004A00021680A19824218BF606004D14268626004
:1004B000006808442060002E1CBF05F10C00AFF35B
:1004C000008070BD10B5044600F02FFB0168204687
:1004D000BDE810400122C4E753EA020C00F0698035
:1004E0002DE9F04B4FF00006002B1FBFB3FA83F548
:1004F00003FA05F424FA05F65E4012BF1643B2FA79
:1005000082F502FA05F4C5F120051EBF22FA05FCAA
:1005100044EA0C04203556EA044C4FEA144418BF50
:10052000641C4FF000084FF00009904271EB030C7F
:1005300039D3002919BFB1FA81F701FA07F6B0FAE9
:1005400080F700FA07F6C7F120071EBF20FA07FC64
:1005500046EA0C062037B6FBF4FCA7EB0507103F74
:1005600007F01F0BCBF120062CFA06F60CFA0BFB5A
:1005700044BFB3460026202FA4BF5E464FF0000BB9
:100580005BEA060C08BF4FF0010B19EB0B0948EBB7
:100590000608ABFB027C06FB02CC0BFB03CCC01BAA
:1005A00071EB0C01C1E70B46024641464846BDE8E7
:1005B000F08B13B54FF000004FF00001AFF3008057
:1005C000BDE81C4070470B460146184601F0A0BD2F
:1005D0007CB51D4616460C00009001D02044401EFC
:1005E000074B7B442A4669460190304600F0AFFB3A
:1005F00005461CB10020694600F0BCFB28467CBDC6
:10060000990700002DE9F04704464FF000094FF02C
:10061000FF37C568D4E90486A80707D0204600F054
:1006200035FF304605F0D8FF002802DA3846BDE82D
:10063000F087280502D54046FFF744FF4C212046AD
:1006400000F0F3F9206D20F0010020654846EEE748
:100650002DE9F041044600F14C073846AFF3008025
:10066000E068810712D0800601D5A66A04E0A1697E
:10067000606808442169461A204600F007FF0022FE
:1006800005463146204600F051FE00E00025384680
:10069000AFF300802846BDE8F0812DE9F04118B1A4
:1006A000BDE8F041FFF7D4BF0B4E00253046AFF355
:1006B00000800A4C6F1E07E02046FFF7C9FF00B11B
:1006C0003D46206D20F00104002CF5D13046AFF3FB
:1006D00000802846DFE700000C000020C00000205A
:1006E0002DE9F04716468846814602F14C07384608
:1006F000AFF300803046FFF785FF18F8010B612843
:100700000AD0722802D077283FD102E001250024C8
:1007100005E00225042402E0082448F2020518F846
:10072000010B2B2806D0622809D018F8010C742878
:100730000AD00BE045F0030544F00204EFE745F072
:10074000040544F00104EAE744F010044846214659
:1007500006F02EF8411C18D00021316171604FF471
:100760000071F560F1617061200704D53046022206
:10077000002100F0DBFD306D40F0010030653846AF
:10078000AFF300803046BDE8F0870026F7E72DE99B
:10079000F04115460E460746204C2046AFF3008038
:1007A0002A4631463846FFF79BFF05462046AFF301
:1007B00000802846BDE8F0812DE9F0410E468046D4
:1007C000164D2846AFF30080154C206DC10704D0AC
:1007D000410804D020F00104F7E7224612E054203B
:1007E000FFF735FE070017D0206D47F001010843E1
:1007F00054212065384600F018F907F14C0005F047
:1008000055FE3A4631464046FFF76AFF0446284601
:10081000AFF300802046CDE70024F8E70C0000206D
:10082000C000002010B5431C02E010F8011B71B19C
:100830008107FAD14FF0013202C88C1A8C4314EAB6
:10084000C211F9D0C01A0A0603D0C01E10BDC01ACA
:1008500010BD0A0401D0801E10BD0902FCD0401E4C
:1008600010BD40EA010370B59B072ED14FF0013651
:10087000042A2AD308C810C99D1B9D43121F15EADC
:10088000C61517D0D8B2E1B2401A50EA056110D1AE
:1008900098B2A1B2401A50EA05410AD123F07F4034
:1008A00024F07F41401A50EA052102D1180EA0EB36
:1008B000146070BDA342DBD018BA21BA884201D9B6
:1008C000012070BD4FF0FF3070BD0AB9002070BD2F
:1008D00010F8013B11F8014B63B1A3420AD1521E3B
:1008E00008D010F8013B11F8014B1BB1A34201D114
:1008F000521EEDD1181B70BD032A40F2308010F05B
:10090000030C00F0158011F8013BBCF1020F6244AA
:1009100098BF11F801CB00F8013B38BF11F8013B3B
:10092000A2F1040298BF00F801CB38BF00F8013BE8
:1009300011F0030300F02580083AC0F0088051F858
:10094000043B083A51F804CBA0E80810F5E7121D63
:100950005CBF51F8043B40F8043BAFF30080D20782
:1009600024BF11F8013B11F801CB48BF11F8012B4E
:1009700024BF00F8013B00F801CB48BF00F8012B71
:10098000704710B5203AC0F00B80B1E81850A0E8CD
:100990001850B1E81850A0E81850203ABFF4F5AF4D
:1009A0005FEA027C24BFB1E81850A0E8185044BFA9
:1009B00018C918C0BDE810405FEA827C24BF51F816
:1009C000043B40F8043B08BF7047D20728BF31F80A
:1009D000023B48BF11F8012B28BF20F8023B48BF5B
:1009E00000F8012B70474FF000020429C0F012807C
:1009F00010F0030C00F01B80CCF1040CBCF1020FD2
:100A000018BF00F8012BA8BF20F8022BA1EB0C01A6
:100A100000F00DB85FEAC17C24BF00F8012B00F89C
:100A2000012B48BF00F8012B70474FF0000200B5C2
:100A3000134694469646203922BFA0E80C50A0E801
:100A40000C50B1F12001BFF4F7AF090728BFA0E8AF
:100A50000C5048BF0CC05DF804EB890028BF40F87B
:100A6000042B08BF704748BF20F8022B11F0804FBD
:100A700018BF00F8012B704730B44FF0013C50F81C
:100A8000042B51F8043BCCFA52F4D51A20D1FCB90E
:100A900050F8042B51F8043BCCFA52F4D51A17D174
:100AA000B4B950F8042B51F8043BCCFA52F4D51ADF
:100AB0000ED16CB950F8042B51F8043BCCFA52F427
:100AC000D51A05D1002CDAD030BC4FF000007047A9
:100AD00029BAB1FA81F111F01801D1F12000844056
:100AE000F2D1CA40CB4012F0FF0213F0FF0330BC3A
:100AF000D01A7047704770477047000070B5064CB9
:100B00007C44064D7D4403E0206820448047241D3A
:100B1000AC42F9D170BD000040C7000044C70000DE
:100B200000487047BC010020704710B5FFF7F8FF80
:100B3000083010BD10B5FFF7F3FF203010BD70472F
:100B400070477047704738B504460A46002069462A
:100B5000AFF30080002808BF38BD02460099204648
:100B600000F076FE012038BD012001F053BBF8B53E
:100B7000AFF30080054600200C46102000BF06465B
:100B8000A819A0420DD9324669460020AFF3008073
:100B9000070008BF01F03EFB0098A04218BF0546C1
:100BA000C419FFF7C2FF05600746F01D20F00700DB
:100BB0004619284600F00AF8B44208BFF8BDA21B47
:100BC00031463868BDE8F84000F042BE00210160BF
:100BD000C0E901100C3005F069BC1020704770B5F9
:100BE000044685690068C10601D5302600E020264C
:100BF000C00707D070BDD4E9012130469047206A74
:100C0000401C20626D1EF6D570BD70B50446856926
:100C10000078C00707D170BDD4E90121202090479A
:100C2000206A401C20626D1EF6D570BD09684A0519
:100C300001D540B27047C905FCD500B270470968BC
:100C40004A0501D5C0B27047C905FCD580B27047CE
:100C500070B50C460546012A05D02878800600D5D7
:100C6000EA69002302E0012305E05B1C934202D203
:100C7000E05C0028F9D1A869E618C01AA861286AC2
:100C8000184428622846FFF7AAFF04E0D5E90121AD
:100C900014F8010B9047B442F8D32846FFF7B5FF8C
:100CA00070BD00002DE9F04106460024106875294A
:100CB000314616A510D0FFF7B9FF002802DA4042EE
:100CC00013A507E031688A0701D512A502E049079C
:100CD00004D511A5012401E0FFF7B1FF00210A228C
:100CE00006F1240709E0B0FBF2FCB0FBF2F302FBD3
:100CF0001C00303078541846491C0028F3D1234694
:100D00002A463046BDE8F04100F006BE0000000073
:100D10002D0000002B000000200000001168026878
:100D2000006A530501D508700AE0D30501D5088093
:100D300006E0130603D5C217C1E9000200E008600F
:100D40000120704701694A1C02610878704700B5AC
:100D50008FB0CDE901310021059105497944CDE9F4
:100D600003101146684600F031F90FB000BD0000D5
:100D7000E5FFFFFF0A6802F8010B0A607047D1E93E
:100D800000239A4202D2531C0B601070704700007F
:100D90002DE9FF5F15468A460446DFF8AC80F8442B
:100DA0000027D8E900103E46CDE9001010E05AF8BF
:100DB00026106A4602A801F002FA411C07D02178E9
:100DC000890603D5E269391891420DD80744761C8B
:100DD0002078800602D5E069B84205DDAE42E6DB48
:100DE0005AF826000028E2D1A069C01BA061204665
:100DF000FFF7F5FED8E90010CDE90010002017E05C
:100E00005AF828106A4602A801F0D9F9B0F1FF3F5C
:100E100081460BD000250DF1080B05E0D4E9012136
:100E20001BF8050090476D1C4D45F7D308F10100F4
:100E3000B0428046E4DB206A384420622046FFF757
:100E4000E4FEBDE8FF9F000062BA00002DE9F0411A
:100E50008046D21D22F007020025D2E90002F529C2
:100E600015A614D0011E72F1000106DA0023D0EBA2
:100E7000030063EB020211A608E0D8F800108B070C
:100E800001D50FA602E0490701D50EA6012511469E
:100E9000002408F1240704E000F0F9FC30323A5550
:100EA000641C50EA0102F7D12B46324621464046E7
:100EB000BDE8F04100F030BD000000002D00000052
:100EC0002B0000002000000030B4002100F12404B9
:100ED00008E002F00705D208303542EA4372DB0829
:100EE0006554491C52EA0305F3D10468002310A29B
:100EF000250708D504F020040C4304D0C46901235D
:100F00000CA2641EC46130BC00F006BD10B50446DE
:100F100021461068FFF793FE02462046BDE81040C8
:100F20000023D1E7D21D22F00701D1E90023CBE74E
:100F30000000000030000000F0B40D4601880905F3
:100F400002D5214C7C4402E01F4C7C440E3400212D
:100F500000F1240608E002F00F071209E75D42EAFB
:100F600003721B097754491C52EA0307F3D1027834
:100F70000023120704D5702D06D009B102231134C5
:100F80002246F0BC00F0C8BC01231034F8E770B56D
:100F900004460D4621461068FFF751FE02462946D9
:100FA0002046BDE870400023C6E7D21D22F00703AB
:100FB000D3E90023C0E70368126843F0200303600D
:100FC0000823C3610023B7E7C4B800002DE9F05F30
:100FD000894604464FF0000ADFF874B1FB44C0F8BC
:100FE00020A02046E1688847002874D0252806D034
:100FF000D4E901219047206A401C2062F1E70026D5
:101000005F462046E16888472028054607DB312DEA
:1010100005D2781910F8200C08B10643F1E7B007A3
:1010200001D526F00406C4F81CA00027C4F818A0B7
:101030002A2D09D028460BF09AFB38B304EB870819
:10104000303DC8F8185019E059F8041B204604EB4D
:1010500087029161E1688847012F054618D1E06950
:10106000002820DA26F020061DE0D8F8180000EB52
:10107000800005EB40003038C8F818002046E168D1
:10108000884705460BF073FB0028EED1012F0AD0EC
:101090002E2D08D12046E16888477F1C0546022F87
:1010A00046F02006C4DBA069002803DA404246F07F
:1010B0000106A061F00701D026F010066C2D0BD0C0
:1010C000682D09D04C2D39D06A2D35D0742D35D0EE
:1010D0007A2D33D016E038E0E1682F462046884765
:1010E000B842054609D16C2F26D04FF48060E168E4
:1010F000064320468847054604E06C2F1AD04FF47B
:10110000807006430DB3A5F14100192802D820359F
:1011100046F400664A462946204626604E46FFF7BA
:101120006FF880B101280BD0F61D26F0070000F102
:10113000080956E74020E4E78020D8E70020D6E7FA
:1011400006F104094DE7284652E7206ABDE8F09F02
:1011500054B800002DE9F04705460C46C86820F455
:10116000201040F48000C860800602D5084600F0D8
:10117000B0F9E06841F282014FF0FF3901400229E5
:1011800003D0204600F04EF9B5E000F42041B1F55F
:10119000004F0FD1C00306D56168E06A884200D8CD
:1011A0000846606006E02069E0626060606905F002
:1011B00067FAA061A0680022EEB200280DDAE168AB
:1011C0008B050AD4C043A06041F490302260E060F7
:1011D0006068411C61600670A5E0E068904622608E
:1011E00040F40050E060206968BB606905F0A0FA37
:1011F000012704F12405A0B1A08910F4407F08D094
:10120000E069FFF724F9206118B1E06840F400605C
:1012100016E0E7612561E06820F4407040F48060EA
:101220000EE0E069FFF713F900282061F1D0E068D3
:1012300040F4006010F4407FE06002D140F4807020
:10124000E06020696060E06825696FF0010AC1050F
:101250001FD56168E06A884200D80846411B04D067
:101260002246284600F0E8F8F0BBE068010203D50A
:10127000E562C4E9015854E0691CE1626160E1691A
:1012800040F48030491EC4E9021030462E70BDE89B
:10129000F087010202D500F480320AE06068411C48
:1012A00061600670E0680A2E40F48030E06006D08D
:1012B0000022E16A6068814203D90B4602E0012204
:1012C000F7E70346A7895B1B7F0503D4E7699F42C5
:1012D00000DDE2B1814200D80146E5620F1AC4E99F
:1012E0000158002B09DD00E005E02246194628469A
:1012F00000F0A2F808B14846C9E747B1A069E56225
:101300006560C01BA061E06840F01000E060E0682C
:10131000000208D56168A069E562491B0844656060
:10132000A0615046B3E73046B1E700002DE9F04137
:10133000044616460D464769007B80072ED0384686
:1013400005F0F6F950BB3EB3012E02D0022E25D196
:1013500004E0204600F012FF05441DE0384605F089
:101360008FF9E168002841F01001E16005DA2046BC
:1013700000F058F80120BDE8F081C9030BD5626880
:10138000E16A914200D81146A26911442269891A82
:10139000814200DD08460544002D01DA0220EAE71B
:1013A000E16A6068E268814206D29103E06203D597
:1013B00022F4003141F01002A6690027AE4213DC8E
:1013C000E16A814201D90B4600E0034603EB060CBB
:1013D0002369ACEB030CAC4506DD814201D98C4698
:1013E00000E084469C4505D1A760276042F02000BC
:1013F000A5620DE0AD1BE669AE1B8142A66000D977
:101400000846C01A281A20605819606022F020008F
:1014100003490840E060002084F84870ABE7000012
:10142000BFCFD7FFC16821F4001141F08001C16036
:1014300000218160016070472DE9F0478146144624
:101440000E464FF0FF383248D5685769054209D03B
:101450003846A16905F0A6FA002811DB2C48C043E4
:101460000540E5602B4632464946384605F0FEFA0F
:10147000A16920F00042B21A11440028A16103D0F2
:101480002046FFF7CFFF4046BDE8F08770B5044621
:101490000569C06A6168884200D80846E16821F49D
:1014A0002011E160C90312D5A84208D02246411B91
:1014B0002846FFF7C1FF10B14FF0FF3070BD00208C
:1014C000E562C4E90150E06820F48030E06000206B
:1014D00070BD10B50446C06820F02000E060A16A2D
:1014E000A06988420DD02046FFF7D0FFE06820F4C5
:1014F000405040F01000E060A06AA0612069E06206
:10150000606044F24001E0688843E06010BD000084
:10151000100002002DE9F04704461E4690460D4695
:10152000C7684C308146AFF30080B80714D078020A
:1015300012D44046B8F5807F09D0B0F5007F06D0C0
:10154000B8F5806F08D1012604F1240506E0701E6D
:101550006FF07F41884201D3012409E02561E661F3
:101560006560E06820F4706040EA0800E0600024F4
:101570004846AFF300802046BDE8F08710B56548C7
:101580005421FFF752FA64485421FFF74EFA63489A
:101590005421FFF74AFA62485E49624A624B016091
:1015A0005D4810605D4A1A60431C0B65511C016563
:1015B0000120106557484C3004F078FF56484C30F5
:1015C00004F074FF55484C3004F070FF574804F0A5
:1015D0006DFF58484F4A56A17844FFF7D8F820B914
:1015E000544878440A3800F00EFE54484A4A52A142
:1015F0007844FFF7CCF820B9504878440A3800F016
:1016000002FE4F48454A4CA17844FFF7C0F820B984
:101610004B4878440A3800F0F6FD40233D48DC0092
:1016200000212246FFF776FF20B142487844543823
:1016300000F0E9FD3848224640230021FFF76AFF09
:1016400020B13E487844543800F0DDFD334822464E
:1016500010230021FFF75EFF002806D038487844A9
:10166000BDE81040563800F0CEBD10BD2B482DE926
:10167000F041006D2D4E20F001043046AFF30080A4
:10168000244D4C352846AFF300802248FEF7BAFFC0
:101690002846AFF300802846AFF300801E4D4C353E
:1016A0002846AFF300801C48FEF7ACFF2846AFF396
:1016B00000802846AFF30080184D4C352846AFF324
:1016C00000801648FEF79EFF2846AFF300802846AC
:1016D000AFF3008014E0206D20F0010504F14C0010
:1016E0000746AFF300802046FEF78CFF3846AFF385
:1016F00000803846AFF300802046FEF7E3FE2C461C
:10170000002CE8D13046AFF300800848AFF30080EA
:10171000BDE8F081C0000020140100206801002015
:101720000000002004000020080000200C00002021
:101730007200000030B50000770000001FB5000007
:10174000F8B400002DE9FE4F00274FF48074BA462C
:1017500020468DF80070FEF77AFE5FEA000801D19E
:1017600000F058FD2146404604F07AFF060009D0FB
:101770004FF0010B4546C14616F8014B8FB15C2C6A
:1017800016D01CE008F108004146C8F8000000200F
:10179000C8F80400D8F800402070012003B0BDE86C
:1017A000F08F222C01D0272C0FD12746BA462CE0EF
:1017B0003078222807D05C2805D0272803D0BC42E7
:1017C00003D1002721E0761C04464CB12FB9202C10
:1017D00006D0A4F10900042802D905F8014BCBE793
:1017E0004D4502D1BAF1000F0FD0524649460020B4
:1017F00005F8010B6846AFF300809DF8000068B162
:101800004D464FF0000A0BF1010B002CB4D14FEA0A
:101810008B00FEF71CFE040002D004E0A946F0E7AE
:10182000002000F0F7FC00264046C4F8008005E0E8
:1018300010F8011B11B9761C44F82600A842F7D312
:101840002146002044F826003046A7E7704770473D
:1018500030B404468C464368002B18BF634538BF3C
:101860001846F8D303681844604507D0C81C20F018
:10187000070000F1040CACEB0100121A2146CCF871
:10188000002030BC00220CF10400FEF7EABD30B5A8
:10189000B0F10A0271F100034FEA900E4EEA817E28
:1018A000B0EB0E0061EB91014FEA101E4EEA017E93
:1018B00010EB0E0041EB11114FEA102E4EEA016EB3
:1018C00010EB0E0041EB11214FEA104E4EEA014E93
:1018D00010EB0E0041EB1141401841F100014FEABD
:1018E000D00040EA41704FEAD1014FEA810444EA56
:1018F000907410EB800544EB01046D1944EB040473
:10190000521BA3414FF0000348BF0A3200D530BD3F
:10191000401C41F1000130BD2DE9F0470D469946CC
:101920009246044600F124080168880604D5E0695F
:1019300021F01001216000E00120A84201DD471BD9
:1019400000E00027A1697A1902EB0900081AA061DA
:101950002078C00602D42046FFF741F9002608E0AF
:10196000D4E901211AF806009047206A401C761C31
:1019700020624E45F4DB2078C0060AD52046FFF7EA
:101980002EF906E0D4E9012130209047206A401C5E
:101990002062381EA7F10107F4DC07E0D4E9012139
:1019A00018F805009047206A401C2062281EA5F107
:1019B0000105F3DC2046FFF728F92078000602D560
:1019C0000220BDE8F0870120FBE72DE9FF4F0C4620
:1019D0001E464FF0FF378BB0D2E90001DDF8608082
:1019E0000A908A46C1F30A5505B93D4600210846CA
:1019F0004FF00000BAF1000F00F4400005DA00EBF0
:101A000080004FF4400101EA50004FEA9059B9F1CB
:101A1000010F00DDB9460A9850EA4A000ED044F69C
:101A20001050A5F2FF3545432F14B8F1000F1ED01A
:101A30007542291E1EDDC9F100021CE0B8F1010F3C
:101A40004FF0000001D0302103E0F24305E02154C3
:101A5000401CB042FBDB30460022002121540B9990
:101A6000C1F80880C1E900200FB0BDE8F08FBD1BB0
:101A70006D1CDEE74A4600DA694206A800F01AFC4F
:101A800006AB93E8070003AB83E8070050460A99CA
:101A90000AF08DFA8DE80700A0F500501F3800907D
:101AA0000398002D0ADD42F21F014A460844002334
:101AB00003A9039068460AF0F6FC09E0A0F500507F
:101AC0004A461F38002303A9039068460AF000FD28
:101AD0008DE807000004000C03D04FF0FF304108F0
:101AE00000E01046B8F1000F03D000220092154626
:101AF0001EE0751E05D4FFF7CAFE303262556D1E1A
:101B0000F9D5B3460122084302D000227F1C04E02D
:101B10002078302801D100227F1E002A099784D026
:101B20001DE0112D07DAFFF7B2FE303262556D1C51
:101B300050EA0102F5D1084302D00098C8B10EE086
:101B40000021681E05E0235C625C63542254401E41
:101B5000491C8142F7DBAB46A81B401E09900020C0
:101B600004F80B000B98099AC0F80880C0E9002B14
:101B70007AE711264FF0000857E72DE9F04F884625
:101B80000446D21D22F0070191B0D1E90001CDE950
:101B90000A010AF0D4FD02460B98C00F01D02D2097
:101BA00007E02068810701D52B2002E0202101EA0F
:101BB000C000032A099001D0072A05DB03464146ED
:101BC000204600F037FB0BE12078800601D5E06964
:101BD00000E00620B8F1650F814606D0B8F1660F27
:101BE00018D0B8F1670F70D131E00020B9F1110FB2
:101BF000009001DB112301E009F101030AAA01A908
:101C00000CA8FFF7E2FEDDE90C70002609F10105E2
:101C1000834647E001204B4600904FF000470AAA58
:101C200001A90CA8FFF7D1FEDDE90DB00C995D46C6
:101C3000002610B909F101000D18B9EB050003D415
:101C4000C0F1FF3609F10105A5EB09002BE0B9F160
:101C5000010F01DA4FF001090020B9F1110F0090D6
:101C6000484601DD112300E003460AAA01A90CA899
:101C7000FFF7ABFEDDE90C704D4600268346207869
:101C800000070AD4AB4500DA5D4601A8012D04DD4A
:101C9000411911F8011C302907D04F4502DA17F11C
:101CA000040F04DA012082460FE06D1EEEE7002FDC
:101CB00002DCED1B3E4403E0781CA84200DD7D1CE5
:101CC000B81B00F1010A4FF000472078000703D449
:101CD000AA4501DB4FF0FF3A0021B7F1004F0DF1AB
:101CE00043088DF8431024D002202B23002F01DA63
:101CF0007F422D230A21021EA0F1010000DC5FB10A
:101D000097FBF1FC97FBF1F201FB1C7C17460CF1F1
:101D1000300C08F801CDEEE7A8F10100037021882E
:101D2000090501D5452100E06521A0F1010800F871
:101D3000011C09980FA9A1EB0807FF1D00B10120A4
:101D4000411901EBEA70A1693844081A401EA061EC
:101D50002078C00602D42046FEF741FF099828B13A
:101D6000D4E901219047206A401C20622078C006F7
:101D700022D52046FEF733FF1EE0002E04DBB345DC
:101D800002DD01A8805D00E03020D4E90121904708
:101D9000206A401C2062761CAAF101005FEA000A5A
:101DA0000AD1FEF7C7FEC0680168405CD4E9012192
:101DB0009047206A401C2062281EA5F10105DCDC4A
:101DC00007E0D4E9012118F8010B9047206A401C74
:101DD0002062381EA7F10107F3DC2046FEF715FF4D
:101DE000032011B041E600002DE9F04F04460D46F6
:101DF000D21D22F0070089B0D0E900974846394645
:101E00000AF09DFC0246F80F01D02D2307E0206860
:101E1000810701D52B2302E0202101EAC0038DF8C0
:101E200020300BB1012000E00020032A824601D0BF
:101E3000072A04DB2946204600F0FCF93FE1207820
:101E4000800601D40D2500E0E569C7F30A560D2D83
:101E500049DA00214FEA175B08464FF00000002FD7
:101E600000F4400007DA00EB80004FF4400100EB83
:101E7000D07001EA60008115012901DD4FF0FF31CA
:101E800000224FEA850CBCF1180F06D31346ACF1C3
:101E900018004FF08052C24003E04FF4801323FA41
:101EA0000CF30CF10C0CBCF1200F04D3ACF1200CA2
:101EB00009FA0CF001E007FA0CF000294FF0004895
:101EC00001DD18B90FE00ED140450CD319EB020922
:101ED0005F4121B9404502D19F4329EA0209BBEB8A
:101EE000175F00D0761C2088000502D57B48784417
:101EF00002E07A487844193808AA302302F80A30F8
:101F0000037C0AF10101002E0AF1020A53546A46C9
:101F100002DC4FF0300101E04FF031014FF00108D9
:101F20008DF8001002D0A6F2FF3603E059EA47010F
:101F300000D06B4E002D02DC2178090704D54FF04C
:101F400002082E218DF80110C44600210BE0C7F3D2
:101F500003433F01C35C491C6D1E02F8083005298C
:101F600008F1010801DA002DF1DC00210CE000EBA2
:101F70001973491C1B786D1E082902F808304FEAB6
:101F8000091908F1010801DA002DF0DC21688B063F
:101F900002D516E0A8F10108E04505DD02EB0803D3
:101FA00013F8013C302BF5D0B8F1000F09DD02EB3E
:101FB000080313F8013C2E2B03D1090701D4A8F123
:101FC0000108002D05DD3E2102F808106D1E08F104
:101FD0000108407C002E02F8080008F1010804DA2C
:101FE0002D20764202F8080002E02B2002F80800BB
:101FF0000A214FF47A70864208F101080BDB96FB48
:10200000F0F3303302F8083096FBF0F308F10108E2
:1020100000FB136601E0642E0CDB642096FBF0F3FA
:10202000303302F8083096FBF0F308F1010800FBAA
:10203000136601E00A2E06DB96FBF1F0303002F861
:10204000080008F1010896FBF1F001FB1060303048
:1020500002F80800A16908F1010808EB050202EB8B
:102060000A00081AA0612078C00602D42046FEF7B4
:10207000B6FD216A08AE01EB0A00206204E0D4E953
:10208000012116F8010B9047BAF1010AF7D2207826
:10209000C00602D52046FEF7A2FD6E4609E016F8FE
:1020A000010B3E280FD0D4E901219047206A401C43
:1020B0002062B8F10108F2D22046FEF7A6FD09B071
:1020C0000320BDE8F08F206A2844206203E0D4E9B1
:1020D0000121302090476D1EEBD3F8E766A9000080
:1020E00002FCFFFF10B5436913B1AFF3008001E0BC
:1020F000FEF7AEFD012010BD127800F124010A7038
:1021000000224A700122EDE711684FF0FF32E9E743
:102110002DE9F04114460D46074601F14C063046C4
:10212000AFF30080094B7B44224629463846FEF730
:102130000EFE0446287B000601D54FF0FF343046E2
:10214000AFF300802046BDE8F081000053A60000F8
:1021500010B5436913B1AFF3008001E0FEF718FE3C
:10216000012010BD126800F1240142620022826247
:102170000122EDE711684FF0FF32E9E710B50146A3
:10218000C268900703D0900607D5886A0AE0FEF778
:1021900017F901210160881E10BD8B694868184439
:1021A0000B69C01A91F848301BB191F84910401AD8
:1021B00010BD1103FCD50028FADD401E10BD2DE92D
:1021C000F04116460C460546FEF7F2F8036893F810
:1021D0000101012807D0FF2C12D8185D80B1012021
:1021E0002C70BDE8F081D3F807013246214603F296
:1021F0000713C7182846BC46BDE8F04101236047D5
:102200004FF0FF30EDE710B500F0CCF8BDE810401E
:1022100000F0C2B810B500F0DFF8BDE8104000F0E3
:10222000BBB810B5FEF781FC0068BDE8104000F0B7
:10223000FBB800002DE9F0411F4604460326016863
:10224000072A01F4006004DB08B116A505E016A515
:1022500003E008B115A500E015A521F010002060ED
:10226000A069C01EA0610FB1401EA0612046FEF70C
:10227000B6FC4FB1D4E9012138469047206A401C92
:102280002062C01C206206E0206AFAE7D4E901213E
:1022900015F8010B9047761EF8D22046FEF7B5FCE4
:1022A000BDE8F0814E414E006E616E00494E460021
:1022B000696E66002DE9F047814616468AB03548BA
:1022C00078440DC88DE80D0032487844801C03AC7A
:1022D0000DC884E80D0041F69B300844372190FB7F
:1022E000F1F290FBF1F5A5F1800501FB12041B3C16
:1022F00002D56442012000E00020DFF898A080466B
:102300000027FA44AAF1BE0A0EE0E0070AD03246DE
:10231000684607EB470101230AEB81010AF0D8F870
:102320008DE8070064107F1C002CEED1194F7F440C
:10233000AE3F19E0E80715D007EB04100DF1180ABD
:1023400090E80E008AE80E00C068F04201D19819AA
:1023500008903246012306A903A80AF0B9F803AB96
:1023600083E807006D10641C002DE3D14FF00103DA
:1023700032466946B8F1000F03A802D00AF093F87C
:1023800001E00AF0A5F8C9E90001C9F808200AB07F
:10239000BDE8F08724A60000002801D004F06AB947
:1023A0007047000010B5014602A000F042F801207D
:1023B00010BD000053494752545245443A205265DB
:1023C0006469726563743A2063616E2774206F706C
:1023D000656E3A200000000010B5012805D00021EC
:1023E00003A000F026F8012010BD09A1F8E70000C5
:1023F00053494752544D454D3A204F7574206F66EE
:102400002068656170206D656D6F72790000000055
:102410003A2048656170206D656D6F727920636F39
:10242000727275707465640010B50C30AFF3008083
:1024300010BD70B505460C460A2000E06D1C04F086
:10244000C7FB35B128780028F8D102E0641C04F0FD
:10245000BFFB14B120780028F8D1BDE870400A20F5
:1024600004F0B6BB80B505F0E7FC05F0C1FB80BD0C
:1024700080B546F20040C4F20000002104F0FEFCEA
:1024800080BD000080B546F20040C4F2000000218B
:1024900004F0F4FC80BD000080B546F20040C4F2B8
:1024A0000000002104F0EAFC80BD000082B001467B
:1024B0000190009102B0704782B0014601900091F6
:1024C00002B0704782B001460190009102B070479F
:1024D0007047000070470000704700007047000020
:1024E000B0B588B09C4696460C46054607900691C6
:1024F00005920493CDF80CC0CDF808E00194009546
:1025000008B0B0BD84B00A46034603900291019220
:10251000009304B07047000080B586B013468C4627
:1025200086460590049103920293CDF804C0CDF83D
:1025300000E006B080BD0000B0B588B09C4696466D
:102540000C4605460790069105920493CDF80CC001
:10255000CDF808E00194009508B0B0BD80B586B014
:1025600013468C4686460590049103920293CDF85B
:1025700004C0CDF800E006B080BD000080B586B094
:1025800013468C4686460590049103920293CDF83B
:1025900004C0CDF800E006B080BD000082B0014666
:1025A0000190009102B0704782B001460190009105
:1025B00002B0704784B00A4603460390029101922C
:1025C000009304B070470000B0B588B09C469646B2
:1025D0000C4605460790069105920493CDF80CC071
:1025E000CDF808E00194009508B0B0BD80B586B084
:1025F00013468C4686460590049103920293CDF8CB
:1026000004C0CDF800E006B080BD000082B00146F5
:102610000190009102B0704784B00A4603460390CF
:1026200002910192009304B07047000084B00A4602
:102630000346039002910192009304B0704700009A
:1026400080B586B013468C46864605900491039269
:102650000293CDF804C0CDF800E006B080BD0000C4
:1026600084B00A460346039002910192009304B09D
:102670007047000084B00A4603460390029101921D
:10268000009304B070470000B0B588B09C469646F1
:102690000C460546079006918DF817200493CDF857
:1026A0000CC0CDF808E00194009508B0B0BD000062
:1026B00080B586B013468C468646059004910392F9
:1026C0000293CDF804C0CDF800E006B080BD000054
:1026D00082B001460190009102B0704784B00A4672
:1026E0000346039002910192009304B070470000EA
:1026F00084B00A460346039002910192009304B00D
:102700007047000084B00A4603460390029101928C
:10271000009304B07047000082B001460190009120
:1027200002B0704784B00A460346039002910192BA
:10273000009304B07047000082B001460190009100
:1027400002B0704784B00A4603460390029101929A
:10275000009304B07047000082B0014601900091E0
:1027600002B0704782B001460190009102B07047FC
:1027700082B001460190009102B0704784B00A46D1
:102780000346039002910192009304B07047000049
:1027900082B001460190009102B0704784B00A46B1
:1027A0000346039002910192009304B07047000029
:1027B00082B001460190009102B0704782B001469C
:1027C0000190009102B070477047000082B001464E
:1027D0000190009102B0704784B00A46034603900E
:1027E00002910192009304B07047000080B582B05E
:1027F00007F0A2F80190019809F054F902B080BDE9
:1028000080B586B013468C468646059004910392A7
:102810000293CDF804C0CDF800E006B080BD000002
:102820007047000082B001460190009102B07047ED
:1028300084B00A460346039002910192009304B0CB
:102840007047000082B001460190009102B07047CD
:1028500080B586B013468C46864605900491039257
:102860000293CDF804C0CDF800E006B080BD0000B2
:1028700082B001460190009102B0704784B00A46D0
:102880000346039002910192009304B07047000048
:1028900084B00A460346039002910192009304B06B
:1028A0007047000042F25010C2F20000006870470A
:1028B00042F25010C2F2000001680131016070471D
:1028C00080B582B0032000F0ABF80F2000F006F8CE
:1028D000019000F0A3F8002002B080BD80B592B056
:1028E000014611900CA80BAA0991114600F07AFD3F
:1028F00000F0B2FD0B90FFE741F25800C4F2020075
:10290000016841F001010160006800F001000A90D7
:102910000A980890FFE741F23800C4F2020001680B
:1029200041F001010160016821F00101016040F204
:102930004C20C2F200004FF0804101604FF0FF31A7
:10294000C1600F98002812D1FFE70B984DF6836104
:10295000C4F21B31A0FB01014FF0FF3202EB9141A9
:1029600040F24C22C2F200025160079012E00B9834
:1029700040004DF68361C4F21B31A0FB01014FF012
:10298000FF3202EB914140F24C22C2F20002516050
:102990000690FFE740F24C20C2F2000000210161E6
:1029A000816041610590049101F048FB4BF6A5312F
:1029B000C0F600014FF01C0E03907046CDF808E001
:1029C00003F028FC029803F0E5FB0598049901F058
:1029D00067FB0421DDF814E00190704601F060FB14
:1029E0000599D1F800E0DEF824E040F22022C2F29E
:1029F0000002C2F800E0126802F57A72D1F800E035
:102A0000CEF838200A68D2F80CE04EF0040EC2F876
:102A10000CE0049A0090104612B080BD7047000090
:102A200080B582B0014601900198009103F0D2FB7D
:102A300002B080BD84B00020029047F20000C4F2D2
:102A40000000016821F48041016040F21000C2F2F0
:102A5000000000684DF68361C4F21B31A0FB010148
:102A6000890C322211FB02F102910190FFE70298DA
:102A700000210028009109D0FFE747F21400C4F2BA
:102A800000000068C0F340200090FFE70098C007F6
:102A9000002804D0FFE7029801380290E7E747F2E8
:102AA0001400C4F20000006810F4007F03D0FFE7B8
:102AB0000320039002E000200390FFE7039804B096
:102AC0007047000047F20000C4F20000016841F4C2
:102AD000804101607047000082B001468DF8070018
:102AE00047F20000C4F200000268022363F302020E
:102AF00002604EF61050CEF20000026842F004026E
:102B000002609DF807000128009102D1FFE730BF65
:102B100003E040BF20BF20BFFFE74EF61050CEF2CB
:102B20000000016821F00401016002B0704700005C
:102B300047F20000C4F20000006800F4C060704773
:102B400080B586B00A46034605908DF813100598A7
:102B50000028039202930ED1FFE747F21400C4F25B
:102B60000000006810F4007F04D0FFE7FFF762FF69
:102B70000190FFE70FE047F21400C4F20000006884
:102B800000F400700021B1EB502F03D1FFE7FFF7F5
:102B900099FFFFE7FFE74EF61050CEF20000016804
:102BA00021F0040101609DF81300012802D1FFE724
:102BB00030BF03E040BF20BF20BFFFE706B080BDAD
:102BC00041F29000C4F20200016821F0200101608E
:102BD00041F21800C4F20200016821F400710160A2
:102BE0007047000041F20000C4F20200016841F0A9
:102BF000040101607047000080B58AB00146099069
:102C0000002008900790069005900998006800053C
:102C10000028029138D5FFE70998406C0028019000
:102C200013D0FFE70198B0F5000F05D0FFE701983A
:102C3000B0F5400F10D010E041F20C00C4F20200D9
:102C4000016841F4803101600AE0099804300021F4
:102C500001F0F4FC069003E002E001200690FFE79B
:102C6000069800280CD1FFE741F28800C4F2020068
:102C7000016821F44001099A526C1143016002E09D
:102C800006980590FFE7FFE7099800688003002891
:102C900040F1B180FFE70020049041F25800C4F2F7
:102CA0000200006810F0805F13D1FFE7FFE741F2F8
:102CB0005800C4F20200016841F0805101600068D0
:102CC00000F08050039003980090FFE701200490EB
:102CD000FFE747F20000C4F20000016841F4807190
:102CE0000160FFF7DFFD0790FFE747F20000C4F245
:102CF0000000006810F4807F0DD1FFE7FFF7D2FDE0
:102D0000DDF81CE0A0EB0E00032803D3FFE703204F
:102D1000069000E0E9E7069800285BD1FFE741F262
:102D20009000C4F20200006800F440700890089817
:102D3000002819D0FFE708980999C96D884213D077
:102D4000FFE741F29000C4F20200016821F44071F3
:102D50000891016841F480310160016821F48031FB
:102D6000016008990160FFE70898C00700281DD09E
:102D7000FFE7FFF797FD0790FFE741F29000C4F2ED
:102D80000200006810F0020F0FD1FFE7FFF78AFD85
:102D9000DDF81CE0A0EB0E0041F2893E704503D344
:102DA000FFE70320069000E0E7E7FFE7069800282A
:102DB0000CD1FFE741F29000C4F20200016821F457
:102DC0004071099AD26D1143016002E006980590A6
:102DD000FFE702E006980590FFE70498012809D173
:102DE000FFE741F25800C4F20200016821F080516F
:102DF0000160FFE7FFE709980068C00700280CD0D2
:102E0000FFE741F28800C4F20200016821F00301EB
:102E1000099A126A11430160FFE709980068800768
:102E200000280CD5FFE741F28800C4F202000168D7
:102E300021F00C01099A526A11430160FFE70998D9
:102E40000068400700280CD5FFE741F28800C4F273
:102E50000200016821F03001099A926A1143016071
:102E6000FFE709980068800600280CD5FFE741F2CB
:102E70008800C4F20200016821F44061099AD26A14
:102E800011430160FFE709980068800500280CD510
:102E9000FFE741F28800C4F20200016821F44021FA
:102EA000099AD26B11430160FFE709980068400559
:102EB00000280CD5FFE741F28800C4F20200016847
:102EC00021F44011099A126C11430160FFE709983F
:102ED0000068400600280CD5FFE741F28800C4F2E4
:102EE0000200016821F44051099A126B11430160FC
:102EF000FFE709980068000600280CD5FFE741F2BB
:102F00008800C4F20200016821F44041099A526B22
:102F100011430160FFE709980068C00500280CD53F
:102F2000FFE741F28800C4F20200016821F4403159
:102F3000099A926B11430160FFE7099800688004C9
:102F4000002830D5FFE741F28800C4F20200016892
:102F500021F04061099A926C114301600998806CDC
:102F6000B0F1006F09D1FFE741F20C00C4F202009A
:102F7000016841F48011016014E00998806CB0F19F
:102F8000806F0ED1FFE709980430012101F056FB54
:102F900006900698002803D0FFE706980590FFE703
:102FA000FFE7FFE7FFE7099800680003002830D536
:102FB000FFE741F28800C4F20200016821F040619D
:102FC000099AD26C114301600998C06CB0F1006F8E
:102FD00009D1FFE741F20C00C4F20200016841F49C
:102FE0008011016014E00998C06CB0F1806F0ED1BF
:102FF000FFE709980430012101F020FB06900698B4
:10300000002803D0FFE706980590FFE7FFE7FFE7FA
:10301000FFE7099800684003002830D5FFE741F238
:103020008800C4F20200016821F04061099A126D23
:10303000114301600998006DB0F1006F09D1FFE7FD
:1030400041F20C00C4F20200016841F480110160F9
:1030500014E00998006DB0F1806F0ED1FFE7099878
:103060000430012101F0EAFA06900698002803D006
:10307000FFE706980590FFE7FFE7FFE7FFE70998FE
:1030800000684004002820D5FFE741F28800C4F220
:103090000200016821F04051099A526D114301600C
:1030A0000998406DB0F1805F0ED1FFE709980430B8
:1030B000022101F0C3FA06900698002803D0FFE72A
:1030C00006980590FFE7FFE7FFE70998006800040E
:1030D00000280CD5FFE741F28800C4F20200016825
:1030E00021F08041099A926D11430160FFE7059834
:1030F0000AB080BD80B588B00A46034606900591A7
:1031000000200490059842F20001C4F2020109680F
:1031100001F0070188420392029315D9FFE742F2BA
:103120000000C4F20200016821F00701059A114372
:103130000160006800F007000599884203D0FFE7AE
:10314000012007904BE1FFE7069800688007002800
:103150000CD5FFE741F20800C4F20200016821F03B
:10316000F001069A926811430160FFE70698006833
:10317000C007002800F0D180FFE7069840680228C9
:103180000DD1FFE741F20000C4F20200006810F424
:10319000003F03D1FFE70120079020E132E00698CD
:1031A000406803280DD1FFE741F20000C4F202009D
:1031B000006810F0007F03D1FFE7012007900EE1C7
:1031C0001FE00698406800280DD1FFE741F200009B
:1031D000C4F20200006810F0020F03D1FFE70120E3
:1031E0000790FCE00CE041F20000C4F2020000682D
:1031F00010F4806F03D1FFE701200790EFE0FFE7B5
:10320000FFE7FFE741F20800C4F20200016821F085
:103210000301069A526811430160FFF743FB0490D3
:103220000698406802281BD1FFE7FFE741F208003B
:10323000C4F20200006800F00C0008280FD0FFE77D
:10324000FFF730FBDDF810E0A0EB0E0041F2893E05
:10325000704503D3FFE703200790C0E0E6E75BE09B
:103260000698406803281BD1FFE7FFE741F20800FA
:10327000C4F20200006800F00C000C280FD0FFE739
:10328000FFF710FBDDF810E0A0EB0E0041F2893EE5
:10329000704503D3FFE703200790A0E0E6E73AE09C
:1032A0000698406800281AD1FFE7FFE741F20800BE
:1032B000C4F20200006810F00C0F0FD0FFE7FFF718
:1032C000F1FADDF810E0A0EB0E0041F2893E704506
:1032D00003D3FFE70320079081E0E7E71AE0FFE769
:1032E00041F20800C4F20200006800F00C0004285B
:1032F0000FD0FFE7FFF7D6FADDF810E0A0EB0E00E5
:1033000041F2893E704503D3FFE70320079066E052
:10331000E6E7FFE7FFE7FFE7FFE7059842F2000176
:10332000C4F20201096801F00701884215D2FFE7E3
:1033300042F20000C4F20200016821F00701059A80
:1033400011430160006800F007000599884203D02E
:10335000FFE70120079042E0FFE70698006840077A
:1033600000280CD5FFE741F20800C4F20200016812
:1033700021F4E061069AD26811430160FFE70698E4
:103380000068000700280DD5FFE741F20800C4F2ED
:103390000200016821F46051069A126941EAC201F3
:1033A0000160FFE700F080F841F2080EC4F2020E5F
:1033B000DEF800E0CEF3031E4CF6A011C0F60001CB
:1033C00011F80E10C84040F21001C2F2000108606E
:1033D0000F20FFF783FA002107910190FFE707987C
:1033E00008B080BD84B00A4603460390029103985A
:1033F0000F21016041F20800C4F20200016801F0EF
:103400000301DDF80CC0CCF80410016801F0F001F4
:10341000DDF80CC0CCF80810016801F4E061DDF8BB
:103420000CC0CCF80C10006800F46050C008039980
:10343000086142F20000C4F20200006800F00700D8
:10344000029908600192009304B0704740F21000A6
:10345000C2F200000068704780B5FFF7F7FF41F245
:10346000080EC4F2020EDEF800E0CEF3022E4CF697
:10347000B011C0F6000111F80E10C84080BD000068
:1034800080B5FFF7E3FF41F2080EC4F2020EDEF84A
:1034900000E0CEF3C22E4CF6B011C0F6000111F8D8
:1034A0000E10C84080BD000087B000200690059037
:1034B0000490022103910291019041F20800C4F2AC
:1034C0000200006810F00C0F14D0FFE741F2080072
:1034D000C4F20200006800F00C000C283AD1FFE7AB
:1034E00041F20C00C4F20200006800F00300012861
:1034F00030D1FFE741F20000C4F20200006810F092
:10350000080F09D1FFE741F29400C4F202000068FD
:10351000C0F30320069008E041F20000C4F202006C
:103520000068C0F303100690FFE706984CF6B81148
:10353000C0F6000151F82000069041F20800C4F2E4
:103540000200006810F00C0F03D1FFE7069801900D
:10355000FFE721E041F20800C4F20200006800F039
:103560000C00042806D1FFE742F20040C0F2F4004C
:10357000019010E041F20800C4F20200006800F07F
:103580000C00082806D1FFE741F20020C0F27A00C3
:103590000190FFE7FFE7FFE741F20800C4F20200F5
:1035A000006800F00C000C285ED1FFE741F20C002F
:1035B000C4F20200016801F003010491006800F008
:1035C0007000012101EB1010029004980128009076
:1035D0002AD0FFE70098022804D0FFE700980328CC
:1035E00011D022E0029842F20041C0F2F401B1FB96
:1035F000F0F041F20C01C4F202010968C1F30621A6
:10360000484305901FE0029841F20021C0F27A0180
:10361000B1FBF0F041F20C01C4F202010968C1F300
:103620000621484305900EE0FFE706980299B0FB9B
:10363000F1F041F20C01C4F202010968C1F3062164
:1036400048430590FFE741F20C00C4F20200006815
:1036500000F0C060022101EB10600390059803990F
:10366000B0FBF1F00190FFE7019807B07047000050
:1036700080B58AB00146089000200790089800683D
:10368000C0060028049140F11981FFE741F20800CB
:10369000C4F20200006810F00C0F40F0A580FFE7B4
:1036A00041F20000C4F20200006810F0020F09D0DD
:1036B000FFE708988069002804D1FFE701200990FE
:1036C00000F079BC0898006A41F20001C4F20201DE
:1036D000096811F0080F039009D0FFE741F20000DC
:1036E000C4F20200006800F0F000029009E041F22C
:1036F0009400C4F20200006800F4706000090290B7
:10370000FFE702980399814229D9FFE70898006AE8
:1037100001F0D4F8002804D0FFE70120099000F060
:103720004ABCFFE741F20000C4F20200016841F028
:1037300008010160016821F0F001089A126A114342
:103740000160FFE741F20400C4F20200016821F4C5
:103750007F41089AD26941EA0221016028E0FFE72F
:1037600041F20000C4F20200016841F0080101606A
:10377000016821F0F001089A126A11430160FFE725
:1037800041F20400C4F20200016821F47F41089A6A
:10379000D26941EA022101600898006A01F08EF8BE
:1037A000002804D0FFE70120099000F004BCFFE7E7
:1037B000FFF77AFE41F2080EC4F2020EDEF800E0D6
:1037C000CEF3031E4CF6A011C0F6000111F80E1046
:1037D000C84040F21001C2F2000108600F20FFF75C
:1037E0007DF80190FFE768E008988069002840D0E4
:1037F000FFE741F20000C4F20200016841F001015C
:103800000160FFF74FF80790FFE741F20000C4F2B4
:103810000200006810F0020F0DD1FFE7FFF742F839
:10382000DDF81CE0A0EB0E00032803D3FFE7032024
:103830000990C0E3E9E7FFE741F20000C4F20200AB
:10384000016841F008010160016821F0F001089A67
:10385000126A11430160FFE741F20400C4F2020062
:10386000016821F47F41089AD26941EA022101608E
:1038700022E041F20000C4F20200016821F00101DF
:103880000160FFF70FF80790FFE741F20000C4F274
:103890000200006810F0020F0DD0FFE7FFF702F8FA
:1038A000DDF81CE0A0EB0E00032803D3FFE70320A4
:1038B000099080E3E9E7FFE7FFE7FFE70898006882
:1038C000C007002800F0A080FFE741F20800C4F222
:1038D0000200006800F00C00082814D0FFE741F255
:1038E0000800C4F20200006800F00C000C281CD193
:1038F000FFE741F20C00C4F20200006800F0030090
:10390000032812D1FFE741F20000C4F20200006870
:1039100010F4003F08D0FFE708984068002803D162
:10392000FFE70120099046E36DE0FFE70898406853
:10393000B0F5803F09D1FFE741F20000C4F2020078
:10394000016841F48031016020E008984068B0F5DA
:10395000A02F0DD1FFE741F20000C4F20200016880
:1039600041F480210160016841F4803101600CE084
:1039700041F20000C4F20200016821F480310160CC
:10398000016821F480210160FFE7FFE7FFE7089865
:10399000406800281BD0FFE7FEF784FF0790FFE791
:1039A00041F20000C4F20200006810F4003F0DD1A3
:1039B000FFE7FEF777FFDDF81CE0A0EB0E00C9285B
:1039C00003D3FFE703200990F5E2E9E71AE0FEF7E9
:1039D00069FF0790FFE741F20000C4F202000068AF
:1039E00010F4003F0DD0FFE7FEF75CFFDDF81CE0B0
:1039F000A0EB0E00C92803D3FFE703200990DAE209
:103A0000E9E7FFE7FFE7FFE708980068800700287D
:103A100040F19780FFE741F20800C4F2020000681D
:103A200000F00C00042814D0FFE741F20800C4F2B3
:103A30000200006800F00C000C2829D1FFE741F2D9
:103A40000C00C4F20200006800F0030002281FD13D
:103A5000FFE741F20000C4F20200006810F4806F3A
:103A600008D0FFE70898C068002803D1FFE70120CD
:103A70000990A0E241F20400C4F20200016821F0C2
:103A8000F851089A126941EA02610160FFE757E0C4
:103A90000898C06800282FD0FFE741F20000C4F268
:103AA0000200016841F480710160FEF7FBFE07909F
:103AB000FFE741F20000C4F20200006810F4806FDA
:103AC0000DD1FFE7FEF7EEFEDDF81CE0A0EB0E00E7
:103AD000032803D3FFE7032009906CE2E9E741F2F2
:103AE0000400C4F20200016821F0F851089A12693A
:103AF00041EA0261016022E041F20000C4F20200EA
:103B0000016821F480710160FEF7CCFE0790FFE7A9
:103B100041F20000C4F20200006810F4806F0DD082
:103B2000FFE7FEF7BFFEDDF81CE0A0EB0E00032868
:103B300003D3FFE7032009903DE2E9E7FFE7FFE752
:103B4000FFE708980068000700284CD5FFE70898B1
:103B50004069002823D0FFE741F29400C4F202003C
:103B6000016841F001010160FEF79CFE0790FFE74C
:103B700041F29400C4F20200006810F0020F0DD16F
:103B8000FFE7FEF78FFEDDF81CE0A0EB0E00032838
:103B900003D3FFE7032009900DE2E9E722E041F2B9
:103BA0009400C4F20200016821F001010160FEF7F7
:103BB00079FE0790FFE741F29400C4F2020000682A
:103BC00010F0020F0DD0FFE7FEF76CFEDDF81CE0F1
:103BD000A0EB0E00032803D3FFE703200990EAE1DE
:103BE000E9E7FFE7FFE7089800684007002840F191
:103BF000C880FFE70020069041F25800C4F202009E
:103C0000006810F0805F13D1FFE7FFE741F2580032
:103C1000C4F20200016841F080510160006800F0C8
:103C20008050059005980090FFE701200690FFE77F
:103C300047F20000C4F20000006810F4807F23D136
:103C4000FFE747F20000C4F20000016841F4807110
:103C50000160FEF727FE0790FFE747F20000C4F27D
:103C60000000006810F4807F0DD1FFE7FEF71AFE18
:103C7000DDF81CE0A0EB0E00032803D3FFE70320D0
:103C8000099098E1E9E7FFE7FFE7089880680128D5
:103C900009D1FFE741F29000C4F20200016841F04F
:103CA000010101601FE00898806805280DD1FFE739
:103CB00041F29000C4F20200016841F00401016089
:103CC000016841F0010101600CE041F29000C4F292
:103CD0000200016821F001010160016821F0040186
:103CE0000160FFE7FFE7FFE70898806800281DD024
:103CF000FFE7FEF7D7FD0790FFE741F29000C4F21F
:103D00000200006810F0020F0FD1FFE7FEF7CAFDB6
:103D1000DDF81CE0A0EB0E0041F2893E704503D3B4
:103D2000FFE70320099046E1E7E71CE0FEF7BAFD54
:103D30000790FFE741F29000C4F20200006810F023
:103D4000020F0FD0FFE7FEF7ADFDDDF81CE0A0EBA2
:103D50000E0041F2893E704503D3FFE7032009902E
:103D600029E1E7E7FFE70698012809D1FFE741F2DB
:103D70005800C4F20200016821F080510160FFE7A1
:103D8000FFE708980068800600284CD5FFE70898F0
:103D9000406A002823D0FFE741F29800C4F20200F5
:103DA000016841F001010160FEF77CFD0790FFE72B
:103DB00041F29800C4F20200006810F0020F0DD129
:103DC000FFE7FEF76FFDDDF81CE0A0EB0E00032817
:103DD00003D3FFE703200990EDE0E9E722E041F299
:103DE0009800C4F20200016821F001010160FEF7B1
:103DF00059FD0790FFE741F29800C4F20200006805
:103E000010F0020F0DD0FFE7FEF74CFDDDF81CE0CF
:103E1000A0EB0E00032803D3FFE703200990CAE0BC
:103E2000E9E7FFE7FFE70898806A002800F0C08014
:103E3000FFE741F20800C4F20200006800F00C0045
:103E40000C2800F0B180FFE70898806A02286ED144
:103E5000FFE741F20000C4F20200016821F0807126
:103E60000160FEF71FFD0790FFE741F20000C4F27A
:103E70000200006810F0007F0DD0FFE7FEF712FD92
:103E8000DDF81CE0A0EB0E00032803D3FFE70320BE
:103E9000099090E0E9E70898C16A026B436BD0F89B
:103EA00038C06FF00F0E0EEB021242EA03221143EC
:103EB000C26B0023CFF6E07303EA0252A2F50012B0
:103EC0001143006C4FF07E4202EA006000F17E4038
:103ED000084340EACC6041F20C01C4F202010860E0
:103EE00041F20000C4F20200026842F080720260F7
:103EF000086840F080700860FEF7D4FC0790FFE788
:103F000041F20000C4F20200006810F0007F0DD101
:103F1000FFE7FEF7C7FCDDF81CE0A0EB0E0003286E
:103F200003D3FFE70320099045E0E9E73BE041F2D6
:103F30000000C4F20200016821F080710160006895
:103F400010F0006F09D1FFE741F20C00C4F202004B
:103F5000016821F003010160FFE741F20C00C4F2A7
:103F6000020001684FF6FF72CFF6EE621140016069
:103F7000FEF798FC0790FFE741F20000C4F2020050
:103F8000006810F0007F0DD0FFE7FEF78BFCDDF836
:103F90001CE0A0EB0E00032803D3FFE703200990E9
:103FA00009E0E9E7FFE702E00120099003E0FFE70D
:103FB00000200990FFE709980AB080BD80B584B061
:103FC000014602900020019002980068C26822F029
:103FD000A002C2600091FEF765FC0190FFE7029825
:103FE0000068C06810F0200F0ED1FFE7FEF75AFC02
:103FF000DDF804E0A0EB0E00B0F57A7F03D9FFE70F
:104000000320039003E0EAE700200390FFE7039812
:1040100004B080BD40F24C20C2F200000068C168CC
:1040200041F00401C160704740F24C20C2F2000030
:104030000068C16821F00401C160704780B584B098
:104040000146029002980028019103D1FFE7012068
:1040500003901CE00298C06B002807D1FFE702988C
:1040600000218163029800F015F8FFE70298022111
:10407000C163029850F8041B00900846009900F0B4
:10408000F7FE02980121C16300200390FFE7039827
:1040900004B080BD82B001460190009102B070472B
:1040A00080B586B00A4603460590049105980068DD
:1040B00004994FF0010C03926246CDF808C00193B9
:1040C00000F04EFF05980068029942F60042C4F2E3
:1040D00001029042009117D0FFE705980068012186
:1040E00044F20002C4F20102904200910CD0FFE7BA
:1040F000059800684BF60041CBF6FE710844B0FA13
:1041000080F040090090FFE70098C007002807D022
:10411000FFE705980068416C41F400414164FFE706
:1041200005980068016841F001010160002006B0B7
:1041300080BD000080B584B001460290029800283E
:10414000019103D1FFE70120039044E002988069C8
:10415000002801D0FFE700E0FFE70298C06E0028CA
:1041600007D1FFE7029800218166029800F036F837
:10417000FFE702982421C16602980068016821F0D7
:1041800001010160029801F0B5F8012803D1FFE7B1
:10419000012003901FE00298406A002804D0FFE746
:1041A000029800F0B9FFFFE702980068416821F427
:1041B0009041416002980068816821F02A01816085
:1041C00002980068016841F001010160029801F065
:1041D00043F80390FFE7039804B080BD82B0014626
:1041E0000190009102B0704784B00A4603460390E4
:1041F000029103980068029991FAA1F1B1FA81F154
:1042000049004FF0030C0CFA01FC00EA0C00C84016
:104210000192009304B0704780B586B013468C4677
:1042200086460590049103920598006A049991FAD4
:10423000A1F1B1FA81F189000F228A409043039ADB
:1042400002FA01F10843059908620293CDF804C00F
:10425000CDF800E006B080BD80B586B013468C4630
:1042600086460590049103920598406A0499090ACC
:1042700091FAA1F1B1FA81F189000F228A409043AD
:10428000039A02FA01F10843059948620293CDF8B6
:1042900004C0CDF800E006B080BD000080B586B057
:1042A00013468C4686460590049103920598006853
:1042B000049991FAA1F1B1FA81F1490003228A40EF
:1042C0009043039A02FA01F10843059908600293AA
:1042D000CDF804C0CDF800E006B080BD80B586B052
:1042E00013468C4686460590049103920598006813
:1042F000049991FAA1F1B1FA81F1490003228A40AF
:104300009043039A02FA01F1084305990860029369
:10431000CDF804C0CDF800E006B080BD80B586B011
:1043200013468C4686460590049103920598406892
:1043300004998843039A51430843059948600293BE
:10434000CDF804C0CDF800E006B080BD80B586B0E1
:1043500013468C4686460590049103920598C068E2
:10436000049991FAA1F1B1FA81F1490003228A403E
:104370009043039A02FA01F108430599C860029339
:10438000CDF804C0CDF800E006B080BD80B586B0A1
:1043900013468C46864605900491039205988068E2
:1043A000049991FAA1F1B1FA81F1490003228A40FE
:1043B0009043039A02FA01F1084305998860029339
:1043C000CDF804C0CDF800E006B080BD82B0014653
:1043D00001900198426942F002024261009102B0EC
:1043E0007047000080B586B00146049004982830DC
:1043F000009102F06FFC02900298002803D1FFE7C1
:10440000002005901BE00498C06A0390FFE7039822
:10441000002811D0FFE703980230012102F014FDBB
:104420008DF807009DF80700002801D1FFE703E0A1
:10443000039880680390EAE703980590FFE70598E2
:1044400006B080BD80B588B00A4603460790069145
:104450000798006B0028039202933FD0FFE707986C
:10446000006B059000200490FFE7059800210028CC
:1044700001910AD0FFE70598C0780699C978002213
:104480008842B8BF01220192FFE70198C0070028C7
:1044900005D0FFE70598049040680590E5E705988A
:1044A000069948600498069988600598002804D009
:1044B000FFE706980599886003E006980799C862A7
:1044C000FFE70498002804D0FFE7069804994860A5
:1044D00003E0069807990863FFE70BE006980021C0
:1044E00041600698816006980799C8620698079906
:1044F0000863FFE70798283002F042FC009008B0FC
:1045000080BD000084B00A460346039002910298E1
:10451000406800280192009305D0FFE702984168A7
:104520008068886004E0029880680399C862FFE7A9
:1045300002988068002805D0FFE7029841688068EB
:10454000416004E00298406803990863FFE704B003
:104550007047000081B04EF21000CEF200000068FB
:1045600000210090084601B07047000040F21C2076
:10457000C2F20000007800280ED0FFE740F21C20B5
:10458000C2F20000002101704EF60450CEF200008D
:104590004FF080610160FFE74EF21000CEF20000A4
:1045A000016841F001010160002070474FF0FF30C9
:1045B0007047000086B00A460346049003910498B1
:1045C00000280192009304D1FFE74FF0FF300590DF
:1045D00031E040F21000C2F2000000680499B0FB24
:1045E000F1F0013802900298B0F1807F04D3FFE728
:1045F0004FF0FF3005901EE04EF62350CEF2000043
:10460000FF2101704EF21000CEF200000621016081
:1046100002984EF21401CEF2000108604EF218002A
:10462000CEF200000021016040F21C20C2F2000026
:1046300001700591FFE7059806B0704780B588B016
:104640000A4603460790069100200590049041F227
:104650000C00C4F20200006810F0030F03920293F2
:1046600024D0FFE741F20C00C4F20200006800F021
:10467000030007990968884214D1FFE7079800688A
:1046800000280FD0FFE741F20C00C4F202000068DE
:1046900000F07000012101EB101007994968884271
:1046A00003D0FFE701200490FFE757E00798006878
:1046B0000128019008D0FFE70198022811D0FFE7F8
:1046C000019803281AD02FE041F20000C4F2020042
:1046D000006810F0020F03D1FFE701200490FFE70C
:1046E00025E041F20000C4F20200006810F4806F7F
:1046F00003D1FFE701200490FFE718E041F200003A
:10470000C4F20200006810F4003F0CD1FFE741F250
:104710000000C4F20200006810F4802F03D1FFE70C
:1047200001200490FFE702E001200490FFE70498D5
:10473000002812D1FFE741F20C00C4F20200016828
:1047400021F07301079A136852686FF00F0C0CEB9D
:1047500002121A4311430160FFE7FFE704980028A3
:1047600040F0A880FFE741F20000C4F202000168B7
:1047700021F080610160FEF795F80590FFE741F2B6
:104780000000C4F20200006810F0006F0DD0FFE7D7
:10479000FEF788F8DDF814E0A0EB0E00032803D341
:1047A000FFE70320049000E0E9E70498002840F0C8
:1047B0008080FFE70698002813D1FFE741F2100040
:1047C000C4F20200016848F2FF02C0F2FF72114019
:1047D000079A9368D2681B0243EAC26211430160E0
:1047E00036E0069801281AD1FFE741F21000C4F222
:1047F0000200016848F2FF02CFF69F721140079A4B
:104800009368126940F2000CCFF6E07C0CEA025289
:10481000A2F5001242EA03221143016017E041F2BF
:104820001000C4F20200016848F2FF02CFF6FF1246
:104830001140079A936852694FF07E4C0CEA02626D
:1048400002F17E4242EA032211430160FFE7FFE7E3
:1048500041F20000C4F20200016841F08061016091
:10486000FEF720F80590FFE741F20000C4F20200D5
:10487000006810F0006F0DD1FFE7FEF713F8DDF8C8
:1048800014E0A0EB0E00032803D3FFE703200490FD
:1048900000E0E9E7049800280AD1FFE7079880695B
:1048A00041F21001C4F202010A6810430860FFE7F8
:1048B000FFE7FFE7049808B080BD000080B588B02E
:1048C0000146069000200590049041F25800C4F281
:1048D0000200006810F0805F029104D0FFE7FEF74D
:1048E00027F905901DE0FFE741F25800C4F20200ED
:1048F000016841F080510160006800F08050039031
:1049000003980190FFE7FEF713F9059041F2580074
:10491000C4F20200D0F800E02EF0805EC0F800E0A3
:10492000FFE70598B0F5007F10D1FFE706988128D2
:104930000BD3FFE70698A12803D3FFE702200490DA
:1049400002E001200490FFE7FFE717E006988128C6
:1049500003D3FFE7032004900FE00698802803D1DB
:10496000FFE70220049007E00698702803D1FFE7D4
:1049700001200490FFE7FFE7FFE7FFE742F20000B6
:10498000C4F20200016821F00701049A114301609A
:10499000006800F007000499884203D0FFE7012077
:1049A000079002E000200790FFE7079808B080BD5D
:1049B00080B582B04EF62250CEF20000FF21017089
:1049C000007880F0FF00B0FA80F0C0F12000009085
:1049D00001F0F8FB019001980099884204D3FFE7A9
:1049E000019801300090FFE70098FE2101FA00F0E5
:1049F0004EF61F51CEF20001087002B080BD0000DB
:104A00004EF60450CEF200004FF080510160704726
:104A100080B500F009F8002804D1FFE7FFE7FFE7C1
:104A2000FFE7FCE780BD000080B5B2B00020309009
:104A30002F902E902D902C901BA944220290084676
:104A400001911146FBF7F1FF03A86021FBF7EDFF91
:104A500004201B900298259001211D910198FEF7DA
:104A600007FE002809D1FFE741F20000C4F202006E
:104A7000016841F004010160FFE7FEF7A1F84FF083
:104A8000130ECDF86CE04FF0010ECDF884E000205D
:104A90001C901E902290B020239002202590CDF8EB
:104AA00098E00620279028202890072029900420AD
:104AB0002A902B901BA8FEF7DBFD002804D0FFE70F
:104AC00000208DF8C7002EE0FEF78CF84FF4005E52
:104AD000CDF80CE04FF0406ECDF854E003A8FEF79F
:104AE0008BF84FF00F0ECDF8B0E04FF0030ECDF87D
:104AF000B4E04FF0000ECDF8B8E0CDF8BCE0CDF852
:104B0000C0E00DF1B00E042100907046FEF7F2FAFD
:104B1000002804D0FFE700208DF8C70003E0012043
:104B20008DF8C700FFE79DF8C70032B080BD0000D8
:104B300080B590B001460F9000200E900F98072886
:104B40000791069000F289800699DFE801F00418C9
:104B50002E445A8686704FF090400E90FFE741F247
:104B60004C00C4F20200016841F0010101600068DC
:104B700000F001000D900D980590FFE774E040F201
:104B80000040C4F600000E90FFE741F24C00C4F272
:104B90000200016841F002010160006800F00200BB
:104BA0000C900C980490FFE75EE040F60000C4F61D
:104BB00000000E90FFE741F24C00C4F202000168D1
:104BC00041F004010160006800F004000B900B98B4
:104BD0000390FFE748E040F60040C4F600000E9066
:104BE000FFE741F24C00C4F20200016841F0080105
:104BF0000160006800F008000A900A980290FFE740
:104C000032E041F20000C4F600000E90FFE741F2EE
:104C10004C00C4F20200016841F01001016000681C
:104C200000F01000099009980190FFE71CE041F6A0
:104C30000040C4F600000E90FFE741F24C00C4F2C1
:104C40000200016841F080010160006800F080000E
:104C5000089008980090FFE706E04CF6C970C0F68F
:104C6000000002F0B9FBFFE70E9810B080BD000015
:104C700088B00020079006900590022104910390CF
:104C8000029141F20000C4F20200006810F0080F27
:104C900009D1FFE741F29400C4F202000068C0F3BA
:104CA0000320069008E041F20000C4F20200006810
:104CB000C0F303100690FFE706984CF6B811C0F653
:104CC000000151F82000069041F20800C4F20200F1
:104CD000006800F00C0001460C28019100F2708081
:104CE0000199DFE801F0076D6D6D0E6D6D6D186D4A
:104CF0006D6D2200069840F21001C2F200010860BA
:104D000065E040F21000C2F2000042F20041C0F241
:104D1000F40101605BE040F21000C2F2000041F2D9
:104D20000021C0F27A01016051E041F20C00C4F2AE
:104D30000200016801F003010391006800F07000B7
:104D4000012101EB1010029003980228009004D07A
:104D5000FFE70098032809D011E0029842F20041D1
:104D6000C0F2F401B1FBF0F005900EE0029841F2C0
:104D70000021C0F27A01B1FBF0F0059005E0069841
:104D80000299B0FBF1F00590FFE7059841F20C01A4
:104D9000C4F202010A68C2F3062250430590086873
:104DA00000F0C060022101EB1060049005980499A6
:104DB000B0FBF1F040F21001C2F20001086006E021
:104DC000069840F21001C2F200010860FFE741F2CC
:104DD0000800C4F202000068C0F303104CF6A011F2
:104DE000C0F60001085C0790079840F21001C2F27B
:104DF00000010A6822FA00F0086008B0704700005D
:104E00004EF68850CEF20000016841F47001016056
:104E100041F20000C4F20200016841F001010160AA
:104E200041F20801C4F2020100220A6001684FF653
:104E3000FF73CEF6F6231940016041F20C01C4F273
:104E400002014FF480530B60016821F4802101605E
:104E500041F21800C4F20200026040F20000C0F605
:104E600000004EF60851CEF20001086070470000C5
:104E700085B00A46034604900391002002900498EE
:104E800000680290049842F60041C4F20101884291
:104E90000192009305D0FFE70498B0F1804F0AD14A
:104EA000FFE7029820F07000029003984068029992
:104EB00008430290FFE7049842F60041C4F2010162
:104EC000884215D0FFE70498B0F1804F10D0FFE77B
:104ED000049844F20001C4F20101884208D0FFE7BF
:104EE000049844F20041C4F2010188420AD1FFE76C
:104EF000029820F4407002900398C0680299084319
:104F00000290FFE70298049908600398806804996A
:104F1000C8620398006804998862049842F60041C8
:104F2000C4F20101884210D0FFE7049844F2000166
:104F3000C4F20101884208D0FFE7049844F200411E
:104F4000C4F20101884205D1FFE703980069049982
:104F50000863FFE704980121416105B07047000034
:104F600080B587B013468C4686460690059104921C
:104F7000002003900598012101FA00F003900398A6
:104F800006990A6A22EA0000086204980599884096
:104F900006990A6A104308620293CDF804C0CDF85E
:104FA00000E007B080BD000080B588B013468C4695
:104FB00086460790069105929DF814008007002808
:104FC0000393CDF808C0CDF804E015D4FFE79DF8B1
:104FD0001400C007002807D0FFE70798283006997B
:104FE00001F008FE049006E007982830069901F0C9
:104FF00021FE0490FFE71DE00798806A04909DF869
:105000001400C007002806D0FFE70498069908405E
:1050100088420BD1FFE79DF81400C007002808D193
:10502000FFE704980699084203D1FFE700200490A7
:10503000FFE7FFE7049808B080BD000087B00A468C
:105040000346069005910020049040F21C00C2F235
:105050000000406C039002920193FFE70398002147
:105060000028009109D0FFE7039800690599002204
:10507000884298BF01220092FFE70098C0070028ED
:1050800009D0FFE703980169059A511A0591049028
:10509000C0680390E2E705980699086104980699AC
:1050A000886003980699C860039800280AD0FFE733
:1050B0000698006903990A69101A0861069803990D
:1050C0008860FFE70498002804D0FFE70698049959
:1050D000C86006E0069840F21C01C2F20001486474
:1050E000FFE707B07047000082B0014601900198C9
:1050F000C0680028009105D0FFE701988168C0686A
:105100008160FFE70198C06840F21C01C2F2000113
:10511000486402B07047000082B0014601900198D7
:10512000406AC007002800910BD0FFE70198006893
:10513000406820F4003001990A68896A0843506089
:10514000FFE70198406A800700280BD5FFE7019828
:105150000068406820F4803001990A68C96A0843F1
:105160005060FFE70198406A400700280BD5FFE731
:1051700001980068406820F4802001990A68096B52
:1051800008435060FFE70198406A000700280BD5EC
:10519000FFE701980068406820F4004001990A6820
:1051A000496B08435060FFE70198406AC006002839
:1051B0000BD5FFE701980068806820F480500199C2
:1051C0000A68896B08439060FFE70198406A80068F
:1051D00000280BD5FFE701980068806820F4005094
:1051E00001990A68C96B08439060FFE70198406A1B
:1051F000400600281CD5FFE701980068406820F4AD
:10520000801001990A68096C084350600198006C8D
:10521000B0F5801F0BD1FFE701980068406820F4CB
:10522000C00001990A68496C08435060FFE7FFE736
:105230000198406A000600280BD5FFE70198006836
:10524000406820F4002001990A68896C0843506086
:10525000FFE702B07047000080B586B001460490B9
:1052600000200390049A50670291FDF71BFB039006
:1052700004980068006810F0080F12D0FFE7049847
:10528000039B69466FF07E420A604FF400110022D2
:1052900000F0F2FA002803D0FFE70320059026E093
:1052A000FFE704980068006810F0040F12D0FFE7D1
:1052B0000498039B69466FF07E420A604FF48001B8
:1052C000002200F0D9FA002803D0FFE70320059060
:1052D0000DE0FFE704982021C16604980167FFE70D
:1052E000049800218166FFE700200590FFE70598FC
:1052F00006B080BD80B594B0014613900020129096
:1053000010221192ADF84200ADF840000F901398B2
:10531000006848F20002C4F2000290420E9104D1EB
:10532000FFE70120002804D104E00120002801D17A
:10533000FFE700E0FFE71398816802694369D0F84E
:105340001CC01143194341EA0C0112910068006826
:1053500046F6F311CEF6FF710840129908431399EF
:105360000968086013980068406820F44050139959
:105370000A68C968084350601398816912910068EF
:1053800048F20001C4F20001884204D1FFE7012085
:1053900000280AD103E00020002806D1FFE7139877
:1053A000006A129908431290FFE71398006880681A
:1053B00020F4306012990843139909688860FFE768
:1053C0001398006843F60001C4F20101884220D11D
:1053D000FFE741F28800C4F20200006800F0030019
:1053E000014603280D9110D80D99DFE801F002085D
:1053F000050B012011900BE00220119008E0042021
:10540000119005E00820119002E010201190FFE7B4
:1054100095E01398006844F20041C4F2000188420C
:1054200025D1FFE741F28800C4F20200006800F0D5
:105430000C0001460C280C9115D80C99DFE801F0FE
:10544000071313130D1313130A1313131000002063
:1054500011900BE00220119008E00420119005E06B
:105460000820119002E010201190FFE766E01398E9
:10547000006844F60001C4F20001884228D1FFE729
:1054800041F28800C4F20200006800F030000146DA
:1054900000280B910CD0FFE70B9810280ED0FFE7E7
:1054A0000B98202807D0FFE70B98302809D00BE095
:1054B000002011900BE00220119008E004201190D0
:1054C00005E00820119002E010201190FFE734E081
:1054D0001398006848F20001C4F2000188422BD101
:1054E000FFE741F28800C4F20200006800F4406067
:1054F000014600280A910FD0FFE70A98B0F5806FA7
:1055000010D0FFE70A98B0F5006F08D0FFE70A98BF
:10551000B0F5406F09D00BE0002011900BE00220A5
:10552000119008E00420119005E00820119002E09D
:1055300010201190FFE7FFE7FFE7FFE7FFE7FFE736
:105540001398006848F20001C4F20001884204D1B7
:10555000FFE70120002805D1BDE00120002840F030
:10556000BA80FFE7002012901198102809901ED8E9
:105570000999DFE801F0091C0D1C131C1C1C171CE9
:105580001C1C1C1C1C1C1B00FDF766FF129011E06C
:1055900042F20040C0F2F40012900BE0FDF784FFED
:1055A000129007E04FF40040129003E0FFE7012063
:1055B0000F90FFE71298002800F08C80FFE7129808
:1055C0001399496801EB4101884207D3FFE712981C
:1055D00013994968B0EB013F03D9FFE701200F9011
:1055E00077E01198102808905CD80899DFE801F05E
:1055F000095A1D5A335A5A5A475A5A5A5A5A5A5AD3
:105600005900FDF729FF4FEA106E0002139949680F
:1056100010EB51004EF1000E4FF000030791714660
:10562000079AFAF759FF12903FE01398406800215B
:10563000CFF2244111EB50014FF0000242F1000380
:10564000069008461946069B05921A46059BFAF7EE
:1056500043FF129029E0FDF727FF4FEA106E00028A
:105660001399496810EB51004EF1000E4FF0000302
:1056700004917146049AFAF72FFF129015E01398DF
:1056800040684FF4000101EB5001002203900846EE
:105690001146039B02921A46029BFAF71DFF1290D5
:1056A00003E0FFE701200F90FFE71298B0F5407F7D
:1056B0000BD3FFE712980021B1EB105F05D1FFE794
:1056C000129813990968C86002E001200F90FFE763
:1056D000FFE7FFE7CDE01398C069B0F5004F40F059
:1056E0006B80FFE71198102801904ED80199DFE8F0
:1056F00001F00917254C324C4C4C404C4C4C4C4C56
:105700004C4C4B00FDF7A8FE4000DDF84CE0DEF805
:1057100004E000EB5E00B0FBFEF0ADF8400037E0C7
:10572000FDF7AEFE4000DDF84CE0DEF804E000EBF3
:105730005E00B0FBFEF0ADF8400029E01398406831
:1057400044F60001C0F2E81101EB5001B1FBF0F0AA
:10575000ADF840001CE0FDF7A7FE4000DDF84CE08E
:10576000DEF804E000EB5E00B0FBFEF0ADF84000B8
:105770000EE0139840684FF4803101EB5001B1FB0B
:10578000F0F0ADF8400003E0FFE701200F90FFE7E5
:10579000BDF8400020F00F01ADF8421000F00E00FF
:1057A000BDF8421041EA5000ADF84200BDF8420099
:1057B00013990968C8605BE011981028009053D8CD
:1057C0000099DFE801F00918275135515151445132
:1057D0005151515151515000FDF73EFEDDF84CE062
:1057E000DEF80010DEF804E000EB5E00B0FBFEF037
:1057F00080B2C8603BE0FDF743FEDDF84CE0DEF828
:105800000010DEF804E000EB5E00B0FBFEF080B2BA
:10581000C8602CE013980168406842F20042C0F270
:10582000F40202EB5002B2FBF0F080B2C8601EE05E
:10583000FDF73AFEDDF84CE0DEF80010DEF804E09B
:1058400000EB5E00B0FBFEF080B2C8600FE0139882
:10585000016840684FF4004202EB5002B2FBF0F0E6
:1058600080B2C86003E0FFE701200F90FFE7FFE789
:10587000FFE70F9814B080BD70B58AB0DDF838C06E
:105880009E4614460D4606460890079106920593DB
:10589000CDF810E0039402950196CDF800C0FFE723
:1058A00008980068C06907990840401AB0FA80F06B
:1058B0004009069988422FD1FFE70E980130002851
:1058C00029D0FFE70E9800280BD0FFE7FCF7EAFF8E
:1058D000DDF814E0A0EB0E00DDF838E0704519D9D2
:1058E000FFE708980068016821F4D071016008980A
:1058F0000068816821F00101816008982021C1665B
:1059000008980167FFE7089800218166FFE70320F8
:10591000099004E0FFE7C3E700200990FFE709983A
:105920000AB070BD80B500F0A5FC80BD80B500F068
:1059300097FC00F0B7FC00F0BFFC80BD84B00A46C5
:10594000034603900291029800280192009305D02B
:10595000FFE7039801688068016004E0039801682C
:10596000C0680160FFE704B07047000080B582B0F6
:1059700041F67C60C2F200000068002801D0FFE719
:105980000EE041F62860C2F2000009210A220190CF
:1059900004F02EFB4FF41651019804F0D3FAFFE700
:1059A00002B080BD80B582B041F60860C2F200004E
:1059B00000684FF0FF3102F0EDFC019002B080BDB5
:1059C00080B582B041F60860C2F20000006802F0C3
:1059D00071FD019002B080BD80B501F045FC04F07E
:1059E000ADFC00F061F804F0DFFC01F099FC80BD33
:1059F00083B001460290029801909DF8080080074C
:105A00000028009103D5FFE70220019016E09DF8E1
:105A100008004007002803D5FFE7012001900CE0B3
:105A20009DF808000007002803D5FFE70920019032
:105A300002E000200190FFE7FFE7FFE79DF8080084
:105A400010F00C0F05D0FFE7019840F400700190B2
:105A5000FFE79DF808004007002805D5FFE70198FB
:105A600040F480600190FFE7019803B070470000A8
:105A700080B586B00A4603460590049105984042D9
:105A8000039202930190FAF79BFC0199016004983C
:105A900040F28C21C2F20001002241F820204FF098
:105AA000FF3006B080BD000080B504F06BFC80BD07
:105AB00082B001460190019840680068019A12681E
:105AC0001040002818BF0120009102B0704700006C
:105AD00080B584B00146039003980268002A0291C1
